{
  "contractName": "SCVehicle",
  "abi": [
    {
      "inputs": [
        {
          "name": "_sgb",
          "type": "address"
        }
      ],
      "payable": false,
      "stateMutability": "nonpayable",
      "type": "constructor"
    },
    {
      "anonymous": false,
      "inputs": [
        {
          "indexed": false,
          "name": "PK",
          "type": "address"
        },
        {
          "indexed": false,
          "name": "vehicleLoc",
          "type": "string"
        },
        {
          "indexed": false,
          "name": "vehicleStatus",
          "type": "string"
        },
        {
          "indexed": false,
          "name": "binID",
          "type": "string"
        },
        {
          "indexed": false,
          "name": "binStatus",
          "type": "string"
        },
        {
          "indexed": false,
          "name": "binLoc",
          "type": "string"
        },
        {
          "indexed": false,
          "name": "binSeg",
          "type": "string"
        }
      ],
      "name": "SGBNotificationEvent",
      "type": "event"
    },
    {
      "anonymous": false,
      "inputs": [
        {
          "indexed": false,
          "name": "PK",
          "type": "address"
        },
        {
          "indexed": false,
          "name": "vehicleLoc",
          "type": "string"
        },
        {
          "indexed": false,
          "name": "vehicleStatus",
          "type": "string"
        },
        {
          "indexed": false,
          "name": "binID",
          "type": "string"
        },
        {
          "indexed": false,
          "name": "binStatus",
          "type": "string"
        },
        {
          "indexed": false,
          "name": "binLoc",
          "type": "string"
        },
        {
          "indexed": false,
          "name": "binSeg",
          "type": "string"
        },
        {
          "indexed": false,
          "name": "resp",
          "type": "string"
        }
      ],
      "name": "ResponseEvent",
      "type": "event"
    },
    {
      "anonymous": false,
      "inputs": [
        {
          "indexed": false,
          "name": "PK",
          "type": "address"
        },
        {
          "indexed": false,
          "name": "vehicleLoc",
          "type": "string"
        },
        {
          "indexed": false,
          "name": "vehicleStatus",
          "type": "string"
        },
        {
          "indexed": false,
          "name": "binID",
          "type": "string"
        },
        {
          "indexed": false,
          "name": "binStatus",
          "type": "string"
        },
        {
          "indexed": false,
          "name": "binLoc",
          "type": "string"
        },
        {
          "indexed": false,
          "name": "binSeg",
          "type": "string"
        },
        {
          "indexed": false,
          "name": "route",
          "type": "string"
        }
      ],
      "name": "OptimalRouteCollectEvent",
      "type": "event"
    },
    {
      "anonymous": false,
      "inputs": [
        {
          "indexed": false,
          "name": "PK",
          "type": "address"
        },
        {
          "indexed": false,
          "name": "vehicleLoc",
          "type": "string"
        },
        {
          "indexed": false,
          "name": "vehicleStatus",
          "type": "string"
        },
        {
          "indexed": false,
          "name": "disposalArea",
          "type": "string"
        },
        {
          "indexed": false,
          "name": "route",
          "type": "string"
        }
      ],
      "name": "OptimalRouteDisposeEvent",
      "type": "event"
    },
    {
      "anonymous": false,
      "inputs": [
        {
          "indexed": false,
          "name": "PK",
          "type": "address"
        },
        {
          "indexed": false,
          "name": "vehicleLoc",
          "type": "string"
        },
        {
          "indexed": false,
          "name": "vehicleStatus",
          "type": "string"
        }
      ],
      "name": "VehicleStatusEvent",
      "type": "event"
    },
    {
      "anonymous": false,
      "inputs": [
        {
          "indexed": false,
          "name": "PK",
          "type": "address"
        },
        {
          "indexed": false,
          "name": "vehicleLoc",
          "type": "string"
        },
        {
          "indexed": false,
          "name": "vehicleStatus",
          "type": "string"
        }
      ],
      "name": "RegisterVehicleEvent",
      "type": "event"
    },
    {
      "constant": false,
      "inputs": [
        {
          "name": "_vehiclePK",
          "type": "address"
        },
        {
          "name": "_vehicleLoc",
          "type": "string"
        },
        {
          "name": "_vehicleStatus",
          "type": "string"
        }
      ],
      "name": "registerVehicle",
      "outputs": [],
      "payable": false,
      "stateMutability": "nonpayable",
      "type": "function"
    },
    {
      "constant": false,
      "inputs": [
        {
          "name": "_vehiclePK",
          "type": "address"
        },
        {
          "name": "_binID",
          "type": "string"
        }
      ],
      "name": "SGBNotification",
      "outputs": [],
      "payable": false,
      "stateMutability": "nonpayable",
      "type": "function"
    },
    {
      "constant": false,
      "inputs": [
        {
          "name": "_vehiclePK",
          "type": "address"
        },
        {
          "name": "_vehicleSpace",
          "type": "uint256"
        },
        {
          "name": "_vehicleWeight",
          "type": "uint256"
        }
      ],
      "name": "vehicleStatus",
      "outputs": [],
      "payable": false,
      "stateMutability": "nonpayable",
      "type": "function"
    },
    {
      "constant": true,
      "inputs": [
        {
          "name": "_vehiclePK",
          "type": "address"
        }
      ],
      "name": "getVehicleStatus",
      "outputs": [
        {
          "name": "",
          "type": "address"
        },
        {
          "name": "",
          "type": "string"
        },
        {
          "name": "",
          "type": "string"
        }
      ],
      "payable": false,
      "stateMutability": "view",
      "type": "function"
    },
    {
      "constant": false,
      "inputs": [
        {
          "name": "_vehiclePK",
          "type": "address"
        }
      ],
      "name": "requestResponse",
      "outputs": [],
      "payable": false,
      "stateMutability": "nonpayable",
      "type": "function"
    },
    {
      "constant": true,
      "inputs": [
        {
          "name": "_vehiclePK",
          "type": "address"
        },
        {
          "name": "_binID",
          "type": "string"
        }
      ],
      "name": "getRequestResponse",
      "outputs": [
        {
          "name": "",
          "type": "address"
        },
        {
          "name": "",
          "type": "string"
        },
        {
          "name": "",
          "type": "string"
        },
        {
          "name": "",
          "type": "string"
        }
      ],
      "payable": false,
      "stateMutability": "view",
      "type": "function"
    },
    {
      "constant": false,
      "inputs": [
        {
          "name": "_vehiclePK",
          "type": "address"
        },
        {
          "name": "_route",
          "type": "string"
        }
      ],
      "name": "optimalRouteCollect",
      "outputs": [],
      "payable": false,
      "stateMutability": "nonpayable",
      "type": "function"
    },
    {
      "constant": true,
      "inputs": [
        {
          "name": "_vehiclePK",
          "type": "address"
        }
      ],
      "name": "getOptimalRouteCollect",
      "outputs": [
        {
          "name": "",
          "type": "string"
        },
        {
          "name": "",
          "type": "string"
        },
        {
          "name": "",
          "type": "string"
        },
        {
          "name": "",
          "type": "string"
        },
        {
          "name": "",
          "type": "string"
        }
      ],
      "payable": false,
      "stateMutability": "view",
      "type": "function"
    },
    {
      "constant": false,
      "inputs": [
        {
          "name": "_vehiclePK",
          "type": "address"
        },
        {
          "name": "_disposalArea",
          "type": "string"
        },
        {
          "name": "_route",
          "type": "string"
        }
      ],
      "name": "optimalRouteDispose",
      "outputs": [],
      "payable": false,
      "stateMutability": "nonpayable",
      "type": "function"
    },
    {
      "constant": true,
      "inputs": [
        {
          "name": "_vehiclePK",
          "type": "address"
        }
      ],
      "name": "getOptimalRouteDispose",
      "outputs": [
        {
          "name": "",
          "type": "string"
        },
        {
          "name": "",
          "type": "string"
        }
      ],
      "payable": false,
      "stateMutability": "view",
      "type": "function"
    }
  ],
  "bytecode": "0x60806040526040805190810160405280600481526020017f46554c4c000000000000000000000000000000000000000000000000000000008152506007908051906020019062000051929190620001c4565b506040805190810160405280600981526020017f415641494c41424c450000000000000000000000000000000000000000000000815250600890805190602001906200009f929190620001c4565b506040805190810160405280600581526020017f524541445900000000000000000000000000000000000000000000000000000081525060099080519060200190620000ed929190620001c4565b506040805190810160405280600981526020017f4e4f542052454144590000000000000000000000000000000000000000000000815250600a90805190602001906200013b929190620001c4565b503480156200014957600080fd5b5060405160208062004da7833981018060405260208110156200016b57600080fd5b810190808051906020019092919050505080600b60006101000a81548173ffffffffffffffffffffffffffffffffffffffff021916908373ffffffffffffffffffffffffffffffffffffffff1602179055505062000273565b828054600181600116156101000203166002900490600052602060002090601f016020900481019282601f106200020757805160ff191683800117855562000238565b8280016001018555821562000238579182015b82811115620002375782518255916020019190600101906200021a565b5b5090506200024791906200024b565b5090565b6200027091905b808211156200026c57600081600090555060010162000252565b5090565b90565b614b2480620002836000396000f3fe6080604052600436106100a4576000357c0100000000000000000000000000000000000000000000000000000000900463ffffffff1680630e1241b6146100a95780632e03b6a9146100fa5780635074b3d6146102795780636cc7feb8146102de57806372b59af7146103c6578063791fb886146104ae5780637f80708e1461072857806381a7c64714610994578063a06001d314610afd578063cc6168fc14610c33575b600080fd5b3480156100b557600080fd5b506100f8600480360360208110156100cc57600080fd5b81019080803573ffffffffffffffffffffffffffffffffffffffff169060200190929190505050610db2565b005b34801561010657600080fd5b506102776004803603606081101561011d57600080fd5b81019080803573ffffffffffffffffffffffffffffffffffffffff1690602001909291908035906020019064010000000081111561015a57600080fd5b82018360208201111561016c57600080fd5b8035906020019184600183028401116401000000008311171561018e57600080fd5b91908080601f016020809104026020016040519081016040528093929190818152602001838380828437600081840152601f19601f820116905080830192505050505050509192919290803590602001906401000000008111156101f157600080fd5b82018360208201111561020357600080fd5b8035906020019184600183028401116401000000008311171561022557600080fd5b91908080601f016020809104026020016040519081016040528093929190818152602001838380828437600081840152601f19601f820116905080830192505050505050509192919290505050611dad565b005b34801561028557600080fd5b506102dc6004803603606081101561029c57600080fd5b81019080803573ffffffffffffffffffffffffffffffffffffffff169060200190929190803590602001909291908035906020019092919050505061236c565b005b3480156102ea57600080fd5b506103c46004803603604081101561030157600080fd5b81019080803573ffffffffffffffffffffffffffffffffffffffff1690602001909291908035906020019064010000000081111561033e57600080fd5b82018360208201111561035057600080fd5b8035906020019184600183028401116401000000008311171561037257600080fd5b91908080601f016020809104026020016040519081016040528093929190818152602001838380828437600081840152601f19601f8201169050808301925050505050505091929192905050506126ab565b005b3480156103d257600080fd5b506104ac600480360360408110156103e957600080fd5b81019080803573ffffffffffffffffffffffffffffffffffffffff1690602001909291908035906020019064010000000081111561042657600080fd5b82018360208201111561043857600080fd5b8035906020019184600183028401116401000000008311171561045a57600080fd5b91908080601f016020809104026020016040519081016040528093929190818152602001838380828437600081840152601f19601f820116905080830192505050505050509192919290505050612fad565b005b3480156104ba57600080fd5b506104fd600480360360208110156104d157600080fd5b81019080803573ffffffffffffffffffffffffffffffffffffffff16906020019092919050505061380b565b60405180806020018060200180602001806020018060200186810386528b818151815260200191508051906020019080838360005b8381101561054d578082015181840152602081019050610532565b50505050905090810190601f16801561057a5780820380516001836020036101000a031916815260200191505b5086810385528a818151815260200191508051906020019080838360005b838110156105b3578082015181840152602081019050610598565b50505050905090810190601f1680156105e05780820380516001836020036101000a031916815260200191505b50868103845289818151815260200191508051906020019080838360005b838110156106195780820151818401526020810190506105fe565b50505050905090810190601f1680156106465780820380516001836020036101000a031916815260200191505b50868103835288818151815260200191508051906020019080838360005b8381101561067f578082015181840152602081019050610664565b50505050905090810190601f1680156106ac5780820380516001836020036101000a031916815260200191505b50868103825287818151815260200191508051906020019080838360005b838110156106e55780820151818401526020810190506106ca565b50505050905090810190601f1680156107125780820380516001836020036101000a031916815260200191505b509a505050505050505050505060405180910390f35b34801561073457600080fd5b5061080e6004803603604081101561074b57600080fd5b81019080803573ffffffffffffffffffffffffffffffffffffffff1690602001909291908035906020019064010000000081111561078857600080fd5b82018360208201111561079a57600080fd5b803590602001918460018302840111640100000000831117156107bc57600080fd5b91908080601f016020809104026020016040519081016040528093929190818152602001838380828437600081840152601f19601f820116905080830192505050505050509192919290505050613c94565b604051808573ffffffffffffffffffffffffffffffffffffffff1673ffffffffffffffffffffffffffffffffffffffff168152602001806020018060200180602001848103845287818151815260200191508051906020019080838360005b8381101561088857808201518184015260208101905061086d565b50505050905090810190601f1680156108b55780820380516001836020036101000a031916815260200191505b50848103835286818151815260200191508051906020019080838360005b838110156108ee5780820151818401526020810190506108d3565b50505050905090810190601f16801561091b5780820380516001836020036101000a031916815260200191505b50848103825285818151815260200191508051906020019080838360005b83811015610954578082015181840152602081019050610939565b50505050905090810190601f1680156109815780820380516001836020036101000a031916815260200191505b5097505050505050505060405180910390f35b3480156109a057600080fd5b506109e3600480360360208110156109b757600080fd5b81019080803573ffffffffffffffffffffffffffffffffffffffff169060200190929190505050614205565b604051808473ffffffffffffffffffffffffffffffffffffffff1673ffffffffffffffffffffffffffffffffffffffff1681526020018060200180602001838103835285818151815260200191508051906020019080838360005b83811015610a59578082015181840152602081019050610a3e565b50505050905090810190601f168015610a865780820380516001836020036101000a031916815260200191505b50838103825284818151815260200191508051906020019080838360005b83811015610abf578082015181840152602081019050610aa4565b50505050905090810190601f168015610aec5780820380516001836020036101000a031916815260200191505b509550505050505060405180910390f35b348015610b0957600080fd5b50610b4c60048036036020811015610b2057600080fd5b81019080803573ffffffffffffffffffffffffffffffffffffffff169060200190929190505050614433565b604051808060200180602001838103835285818151815260200191508051906020019080838360005b83811015610b90578082015181840152602081019050610b75565b50505050905090810190601f168015610bbd5780820380516001836020036101000a031916815260200191505b50838103825284818151815260200191508051906020019080838360005b83811015610bf6578082015181840152602081019050610bdb565b50505050905090810190601f168015610c235780820380516001836020036101000a031916815260200191505b5094505050505060405180910390f35b348015610c3f57600080fd5b50610db060048036036060811015610c5657600080fd5b81019080803573ffffffffffffffffffffffffffffffffffffffff16906020019092919080359060200190640100000000811115610c9357600080fd5b820183602082011115610ca557600080fd5b80359060200191846001830284011164010000000083111715610cc757600080fd5b91908080601f016020809104026020016040519081016040528093929190818152602001838380828437600081840152601f19601f82011690508083019250505050505050919291929080359060200190640100000000811115610d2a57600080fd5b820183602082011115610d3c57600080fd5b80359060200191846001830284011164010000000083111715610d5e57600080fd5b91908080601f016020809104026020016040519081016040528093929190818152602001838380828437600081840152601f19601f8201169050808301925050505050505091929192905050506145fb565b005b6000600160008373ffffffffffffffffffffffffffffffffffffffff1673ffffffffffffffffffffffffffffffffffffffff16815260200190815260200160002060030190506000600160008473ffffffffffffffffffffffffffffffffffffffff1673ffffffffffffffffffffffffffffffffffffffff16815260200190815260200160002060000190508060000160009054906101000a900473ffffffffffffffffffffffffffffffffffffffff16600460008573ffffffffffffffffffffffffffffffffffffffff1673ffffffffffffffffffffffffffffffffffffffff16815260200190815260200160002060000160000160000160006101000a81548173ffffffffffffffffffffffffffffffffffffffff021916908373ffffffffffffffffffffffffffffffffffffffff16021790555080600101600460008573ffffffffffffffffffffffffffffffffffffffff1673ffffffffffffffffffffffffffffffffffffffff1681526020019081526020016000206000016000016001019080546001816001161561010002031660029004610f5492919061494c565b5080600201600460008573ffffffffffffffffffffffffffffffffffffffff1673ffffffffffffffffffffffffffffffffffffffff1681526020019081526020016000206000016000016002019080546001816001161561010002031660029004610fc092919061494c565b5081600001600460008573ffffffffffffffffffffffffffffffffffffffff1673ffffffffffffffffffffffffffffffffffffffff168152602001908152602001600020600001600301600001908054600181600116156101000203166002900461102c92919061494c565b5081600101600460008573ffffffffffffffffffffffffffffffffffffffff1673ffffffffffffffffffffffffffffffffffffffff168152602001908152602001600020600001600301600101908054600181600116156101000203166002900461109892919061494c565b5081600201600460008573ffffffffffffffffffffffffffffffffffffffff1673ffffffffffffffffffffffffffffffffffffffff168152602001908152602001600020600001600301600201908054600181600116156101000203166002900461110492919061494c565b5081600301600460008573ffffffffffffffffffffffffffffffffffffffff1673ffffffffffffffffffffffffffffffffffffffff168152602001908152602001600020600001600301600301908054600181600116156101000203166002900461117092919061494c565b50600860405160200180828054600181600116156101000203166002900480156111d15780601f106111af5761010080835404028352918201916111d1565b820191906000526020600020905b8154815290600101906020018083116111bd575b5050915050604051602081830303815290604052805190602001206000808573ffffffffffffffffffffffffffffffffffffffff1673ffffffffffffffffffffffffffffffffffffffff168152602001908152602001600020600201604051602001808280546001816001161561010002031660029004801561128b5780601f1061126957610100808354040283529182019161128b565b820191906000526020600020905b815481529060010190602001808311611277575b505091505060405160208183030381529060405280519060200120141561182c576009600460008573ffffffffffffffffffffffffffffffffffffffff1673ffffffffffffffffffffffffffffffffffffffff168152602001908152602001600020600701908054600181600116156101000203166002900461130f92919061494c565b507f86d67216a2abe0b4817b09b3a708edba6de7b8a55b1cc137c4832f0e09d33b1e6000808573ffffffffffffffffffffffffffffffffffffffff1673ffffffffffffffffffffffffffffffffffffffff16815260200190815260200160002060000160009054906101000a900473ffffffffffffffffffffffffffffffffffffffff166000808673ffffffffffffffffffffffffffffffffffffffff1673ffffffffffffffffffffffffffffffffffffffff1681526020019081526020016000206001016000808773ffffffffffffffffffffffffffffffffffffffff1673ffffffffffffffffffffffffffffffffffffffff168152602001908152602001600020600201856000018660020187600101886003016009604051808973ffffffffffffffffffffffffffffffffffffffff1673ffffffffffffffffffffffffffffffffffffffff1681526020018060200180602001806020018060200180602001806020018060200188810388528f8181546001816001161561010002031660029004815260200191508054600181600116156101000203166002900480156114fa5780601f106114cf576101008083540402835291602001916114fa565b820191906000526020600020905b8154815290600101906020018083116114dd57829003601f168201915b505088810387528e81815460018160011615610100020316600290048152602001915080546001816001161561010002031660029004801561157d5780601f106115525761010080835404028352916020019161157d565b820191906000526020600020905b81548152906001019060200180831161156057829003601f168201915b505088810386528d8181546001816001161561010002031660029004815260200191508054600181600116156101000203166002900480156116005780601f106115d557610100808354040283529160200191611600565b820191906000526020600020905b8154815290600101906020018083116115e357829003601f168201915b505088810385528c8181546001816001161561010002031660029004815260200191508054600181600116156101000203166002900480156116835780601f1061165857610100808354040283529160200191611683565b820191906000526020600020905b81548152906001019060200180831161166657829003601f168201915b505088810384528b8181546001816001161561010002031660029004815260200191508054600181600116156101000203166002900480156117065780601f106116db57610100808354040283529160200191611706565b820191906000526020600020905b8154815290600101906020018083116116e957829003601f168201915b505088810383528a8181546001816001161561010002031660029004815260200191508054600181600116156101000203166002900480156117895780601f1061175e57610100808354040283529160200191611789565b820191906000526020600020905b81548152906001019060200180831161176c57829003601f168201915b505088810382528981815460018160011615610100020316600290048152602001915080546001816001161561010002031660029004801561180c5780601f106117e15761010080835404028352916020019161180c565b820191906000526020600020905b8154815290600101906020018083116117ef57829003601f168201915b50509f5050505050505050505050505050505060405180910390a1611da8565b600a600460008573ffffffffffffffffffffffffffffffffffffffff1673ffffffffffffffffffffffffffffffffffffffff168152602001908152602001600020600701908054600181600116156101000203166002900461188f92919061494c565b507f86d67216a2abe0b4817b09b3a708edba6de7b8a55b1cc137c4832f0e09d33b1e6000808573ffffffffffffffffffffffffffffffffffffffff1673ffffffffffffffffffffffffffffffffffffffff16815260200190815260200160002060000160009054906101000a900473ffffffffffffffffffffffffffffffffffffffff166000808673ffffffffffffffffffffffffffffffffffffffff1673ffffffffffffffffffffffffffffffffffffffff1681526020019081526020016000206001016000808773ffffffffffffffffffffffffffffffffffffffff1673ffffffffffffffffffffffffffffffffffffffff16815260200190815260200160002060020185600001866002018760010188600301600a604051808973ffffffffffffffffffffffffffffffffffffffff1673ffffffffffffffffffffffffffffffffffffffff1681526020018060200180602001806020018060200180602001806020018060200188810388528f818154600181600116156101000203166002900481526020019150805460018160011615610100020316600290048015611a7a5780601f10611a4f57610100808354040283529160200191611a7a565b820191906000526020600020905b815481529060010190602001808311611a5d57829003601f168201915b505088810387528e818154600181600116156101000203166002900481526020019150805460018160011615610100020316600290048015611afd5780601f10611ad257610100808354040283529160200191611afd565b820191906000526020600020905b815481529060010190602001808311611ae057829003601f168201915b505088810386528d818154600181600116156101000203166002900481526020019150805460018160011615610100020316600290048015611b805780601f10611b5557610100808354040283529160200191611b80565b820191906000526020600020905b815481529060010190602001808311611b6357829003601f168201915b505088810385528c818154600181600116156101000203166002900481526020019150805460018160011615610100020316600290048015611c035780601f10611bd857610100808354040283529160200191611c03565b820191906000526020600020905b815481529060010190602001808311611be657829003601f168201915b505088810384528b818154600181600116156101000203166002900481526020019150805460018160011615610100020316600290048015611c865780601f10611c5b57610100808354040283529160200191611c86565b820191906000526020600020905b815481529060010190602001808311611c6957829003601f168201915b505088810383528a818154600181600116156101000203166002900481526020019150805460018160011615610100020316600290048015611d095780601f10611cde57610100808354040283529160200191611d09565b820191906000526020600020905b815481529060010190602001808311611cec57829003601f168201915b5050888103825289818154600181600116156101000203166002900481526020019150805460018160011615610100020316600290048015611d8c5780601f10611d6157610100808354040283529160200191611d8c565b820191906000526020600020905b815481529060010190602001808311611d6f57829003601f168201915b50509f5050505050505050505050505050505060405180910390a15b505050565b6000808473ffffffffffffffffffffffffffffffffffffffff1673ffffffffffffffffffffffffffffffffffffffff16815260200190815260200160002060000160009054906101000a900473ffffffffffffffffffffffffffffffffffffffff16600660008573ffffffffffffffffffffffffffffffffffffffff1673ffffffffffffffffffffffffffffffffffffffff16815260200190815260200160002060000160000160006101000a81548173ffffffffffffffffffffffffffffffffffffffff021916908373ffffffffffffffffffffffffffffffffffffffff1602179055506000808473ffffffffffffffffffffffffffffffffffffffff1673ffffffffffffffffffffffffffffffffffffffff168152602001908152602001600020600101600660008573ffffffffffffffffffffffffffffffffffffffff1673ffffffffffffffffffffffffffffffffffffffff1681526020019081526020016000206000016001019080546001816001161561010002031660029004611f3792919061494c565b506000808473ffffffffffffffffffffffffffffffffffffffff1673ffffffffffffffffffffffffffffffffffffffff168152602001908152602001600020600201600660008573ffffffffffffffffffffffffffffffffffffffff1673ffffffffffffffffffffffffffffffffffffffff1681526020019081526020016000206000016002019080546001816001161561010002031660029004611fdd92919061494c565b5080600660008573ffffffffffffffffffffffffffffffffffffffff1673ffffffffffffffffffffffffffffffffffffffff16815260200190815260200160002060040190805190602001906120349291906149d3565b507fca361f982b5f8c50ed68894a3b53f1dc6351b4aa985b1dbc49b16c8fedff119f6000808573ffffffffffffffffffffffffffffffffffffffff1673ffffffffffffffffffffffffffffffffffffffff16815260200190815260200160002060000160009054906101000a900473ffffffffffffffffffffffffffffffffffffffff166000808673ffffffffffffffffffffffffffffffffffffffff1673ffffffffffffffffffffffffffffffffffffffff1681526020019081526020016000206001016000808773ffffffffffffffffffffffffffffffffffffffff1673ffffffffffffffffffffffffffffffffffffffff1681526020019081526020016000206002018585604051808673ffffffffffffffffffffffffffffffffffffffff1673ffffffffffffffffffffffffffffffffffffffff168152602001806020018060200180602001806020018581038552898181546001816001161561010002031660029004815260200191508054600181600116156101000203166002900480156122035780601f106121d857610100808354040283529160200191612203565b820191906000526020600020905b8154815290600101906020018083116121e657829003601f168201915b50508581038452888181546001816001161561010002031660029004815260200191508054600181600116156101000203166002900480156122865780601f1061225b57610100808354040283529160200191612286565b820191906000526020600020905b81548152906001019060200180831161226957829003601f168201915b5050858103835287818151815260200191508051906020019080838360005b838110156122c05780820151818401526020810190506122a5565b50505050905090810190601f1680156122ed5780820380516001836020036101000a031916815260200191505b50858103825286818151815260200191508051906020019080838360005b8381101561232657808201518184015260208101905061230b565b50505050905090810190601f1680156123535780820380516001836020036101000a031916815260200191505b50995050505050505050505060405180910390a1505050565b600a8211158061237d575060328110155b156123ea5760076000808573ffffffffffffffffffffffffffffffffffffffff1673ffffffffffffffffffffffffffffffffffffffff16815260200190815260200160002060020190805460018160011615610100020316600290046123e492919061494c565b5061244e565b60086000808573ffffffffffffffffffffffffffffffffffffffff1673ffffffffffffffffffffffffffffffffffffffff168152602001908152602001600020600201908054600181600116156101000203166002900461244c92919061494c565b505b7f661e4ffec9e332d7861a5712ea06ba6d53aba0eff22b48de4e4ded7b8a46f92e6000808573ffffffffffffffffffffffffffffffffffffffff1673ffffffffffffffffffffffffffffffffffffffff16815260200190815260200160002060000160009054906101000a900473ffffffffffffffffffffffffffffffffffffffff166000808673ffffffffffffffffffffffffffffffffffffffff1673ffffffffffffffffffffffffffffffffffffffff1681526020019081526020016000206001016000808773ffffffffffffffffffffffffffffffffffffffff1673ffffffffffffffffffffffffffffffffffffffff168152602001908152602001600020600201604051808473ffffffffffffffffffffffffffffffffffffffff1673ffffffffffffffffffffffffffffffffffffffff16815260200180602001806020018381038352858181546001816001161561010002031660029004815260200191508054600181600116156101000203166002900480156126125780601f106125e757610100808354040283529160200191612612565b820191906000526020600020905b8154815290600101906020018083116125f557829003601f168201915b50508381038252848181546001816001161561010002031660029004815260200191508054600181600116156101000203166002900480156126955780601f1061266a57610100808354040283529160200191612695565b820191906000526020600020905b81548152906001019060200180831161267857829003601f168201915b50509550505050505060405180910390a1505050565b606080606080600b60009054906101000a900473ffffffffffffffffffffffffffffffffffffffff1673ffffffffffffffffffffffffffffffffffffffff16636a6794ba866040518263ffffffff167c01000000000000000000000000000000000000000000000000000000000281526004018080602001828103825283818151815260200191508051906020019080838360005b8381101561275b578082015181840152602081019050612740565b50505050905090810190601f1680156127885780820380516001836020036101000a031916815260200191505b509250505060006040518083038186803b1580156127a557600080fd5b505afa1580156127b9573d6000803e3d6000fd5b505050506040513d6000823e3d601f19601f8201168201806040525060808110156127e357600080fd5b8101908080516401000000008111156127fb57600080fd5b8281019050602081018481111561281157600080fd5b815185600182028301116401000000008211171561282e57600080fd5b5050929190602001805164010000000081111561284a57600080fd5b8281019050602081018481111561286057600080fd5b815185600182028301116401000000008211171561287d57600080fd5b5050929190602001805164010000000081111561289957600080fd5b828101905060208101848111156128af57600080fd5b81518560018202830111640100000000821117156128cc57600080fd5b505092919060200180516401000000008111156128e857600080fd5b828101905060208101848111156128fe57600080fd5b815185600182028301116401000000008211171561291b57600080fd5b5050929190505050935093509350935060008060008873ffffffffffffffffffffffffffffffffffffffff1673ffffffffffffffffffffffffffffffffffffffff16815260200190815260200160002090508060000160009054906101000a900473ffffffffffffffffffffffffffffffffffffffff16600160008973ffffffffffffffffffffffffffffffffffffffff1673ffffffffffffffffffffffffffffffffffffffff16815260200190815260200160002060000160000160006101000a81548173ffffffffffffffffffffffffffffffffffffffff021916908373ffffffffffffffffffffffffffffffffffffffff16021790555080600101600160008973ffffffffffffffffffffffffffffffffffffffff1673ffffffffffffffffffffffffffffffffffffffff1681526020019081526020016000206000016001019080546001816001161561010002031660029004612a7d92919061494c565b5080600201600160008973ffffffffffffffffffffffffffffffffffffffff1673ffffffffffffffffffffffffffffffffffffffff1681526020019081526020016000206000016002019080546001816001161561010002031660029004612ae692919061494c565b5084600160008973ffffffffffffffffffffffffffffffffffffffff1673ffffffffffffffffffffffffffffffffffffffff1681526020019081526020016000206003016000019080519060200190612b409291906149d3565b5082600160008973ffffffffffffffffffffffffffffffffffffffff1673ffffffffffffffffffffffffffffffffffffffff1681526020019081526020016000206003016001019080519060200190612b9a9291906149d3565b5083600160008973ffffffffffffffffffffffffffffffffffffffff1673ffffffffffffffffffffffffffffffffffffffff1681526020019081526020016000206003016002019080519060200190612bf49291906149d3565b5081600160008973ffffffffffffffffffffffffffffffffffffffff1673ffffffffffffffffffffffffffffffffffffffff1681526020019081526020016000206003016003019080519060200190612c4e9291906149d3565b507f1635bde2837c5c8ba904d0156f627cd5a64a5819bfbd1f60d0ced42ee63fd0bc8160000160009054906101000a900473ffffffffffffffffffffffffffffffffffffffff16826001018360020188888888604051808873ffffffffffffffffffffffffffffffffffffffff1673ffffffffffffffffffffffffffffffffffffffff16815260200180602001806020018060200180602001806020018060200187810387528d818154600181600116156101000203166002900481526020019150805460018160011615610100020316600290048015612d705780601f10612d4557610100808354040283529160200191612d70565b820191906000526020600020905b815481529060010190602001808311612d5357829003601f168201915b505087810386528c818154600181600116156101000203166002900481526020019150805460018160011615610100020316600290048015612df35780601f10612dc857610100808354040283529160200191612df3565b820191906000526020600020905b815481529060010190602001808311612dd657829003601f168201915b505087810385528b818151815260200191508051906020019080838360005b83811015612e2d578082015181840152602081019050612e12565b50505050905090810190601f168015612e5a5780820380516001836020036101000a031916815260200191505b5087810384528a818151815260200191508051906020019080838360005b83811015612e93578082015181840152602081019050612e78565b50505050905090810190601f168015612ec05780820380516001836020036101000a031916815260200191505b50878103835289818151815260200191508051906020019080838360005b83811015612ef9578082015181840152602081019050612ede565b50505050905090810190601f168015612f265780820380516001836020036101000a031916815260200191505b50878103825288818151815260200191508051906020019080838360005b83811015612f5f578082015181840152602081019050612f44565b50505050905090810190601f168015612f8c5780820380516001836020036101000a031916815260200191505b509d505050505050505050505050505060405180910390a150505050505050565b6000600160008473ffffffffffffffffffffffffffffffffffffffff1673ffffffffffffffffffffffffffffffffffffffff16815260200190815260200160002060030190506000600160008573ffffffffffffffffffffffffffffffffffffffff1673ffffffffffffffffffffffffffffffffffffffff16815260200190815260200160002060000190508060000160009054906101000a900473ffffffffffffffffffffffffffffffffffffffff16600560008673ffffffffffffffffffffffffffffffffffffffff1673ffffffffffffffffffffffffffffffffffffffff16815260200190815260200160002060000160000160000160006101000a81548173ffffffffffffffffffffffffffffffffffffffff021916908373ffffffffffffffffffffffffffffffffffffffff16021790555080600101600560008673ffffffffffffffffffffffffffffffffffffffff1673ffffffffffffffffffffffffffffffffffffffff168152602001908152602001600020600001600001600101908054600181600116156101000203166002900461314f92919061494c565b5080600201600560008673ffffffffffffffffffffffffffffffffffffffff1673ffffffffffffffffffffffffffffffffffffffff16815260200190815260200160002060000160000160020190805460018160011615610100020316600290046131bb92919061494c565b5081600001600560008673ffffffffffffffffffffffffffffffffffffffff1673ffffffffffffffffffffffffffffffffffffffff168152602001908152602001600020600001600301600001908054600181600116156101000203166002900461322792919061494c565b5081600101600560008673ffffffffffffffffffffffffffffffffffffffff1673ffffffffffffffffffffffffffffffffffffffff168152602001908152602001600020600001600301600101908054600181600116156101000203166002900461329392919061494c565b5081600201600560008673ffffffffffffffffffffffffffffffffffffffff1673ffffffffffffffffffffffffffffffffffffffff16815260200190815260200160002060000160030160020190805460018160011615610100020316600290046132ff92919061494c565b5081600301600560008673ffffffffffffffffffffffffffffffffffffffff1673ffffffffffffffffffffffffffffffffffffffff168152602001908152602001600020600001600301600301908054600181600116156101000203166002900461336b92919061494c565b5082600560008673ffffffffffffffffffffffffffffffffffffffff1673ffffffffffffffffffffffffffffffffffffffff16815260200190815260200160002060070190805190602001906133c29291906149d3565b507fa61568fc3021fcee50a94fa14d6b5d3f14054c0e8d9b537a1f7ac9d7f3a89da68160000160009054906101000a900473ffffffffffffffffffffffffffffffffffffffff168260010183600201856000018660020187600101886003018a604051808973ffffffffffffffffffffffffffffffffffffffff1673ffffffffffffffffffffffffffffffffffffffff1681526020018060200180602001806020018060200180602001806020018060200188810388528f8181546001816001161561010002031660029004815260200191508054600181600116156101000203166002900480156134f55780601f106134ca576101008083540402835291602001916134f5565b820191906000526020600020905b8154815290600101906020018083116134d857829003601f168201915b505088810387528e8181546001816001161561010002031660029004815260200191508054600181600116156101000203166002900480156135785780601f1061354d57610100808354040283529160200191613578565b820191906000526020600020905b81548152906001019060200180831161355b57829003601f168201915b505088810386528d8181546001816001161561010002031660029004815260200191508054600181600116156101000203166002900480156135fb5780601f106135d0576101008083540402835291602001916135fb565b820191906000526020600020905b8154815290600101906020018083116135de57829003601f168201915b505088810385528c81815460018160011615610100020316600290048152602001915080546001816001161561010002031660029004801561367e5780601f106136535761010080835404028352916020019161367e565b820191906000526020600020905b81548152906001019060200180831161366157829003601f168201915b505088810384528b8181546001816001161561010002031660029004815260200191508054600181600116156101000203166002900480156137015780601f106136d657610100808354040283529160200191613701565b820191906000526020600020905b8154815290600101906020018083116136e457829003601f168201915b505088810383528a8181546001816001161561010002031660029004815260200191508054600181600116156101000203166002900480156137845780601f1061375957610100808354040283529160200191613784565b820191906000526020600020905b81548152906001019060200180831161376757829003601f168201915b5050888103825289818151815260200191508051906020019080838360005b838110156137be5780820151818401526020810190506137a3565b50505050905090810190601f1680156137eb5780820380516001836020036101000a031916815260200191505b509f5050505050505050505050505050505060405180910390a150505050565b6060806060806060600560008773ffffffffffffffffffffffffffffffffffffffff1673ffffffffffffffffffffffffffffffffffffffff168152602001908152602001600020600001600301600001600560008873ffffffffffffffffffffffffffffffffffffffff1673ffffffffffffffffffffffffffffffffffffffff168152602001908152602001600020600001600301600101600560008973ffffffffffffffffffffffffffffffffffffffff1673ffffffffffffffffffffffffffffffffffffffff168152602001908152602001600020600001600301600201600560008a73ffffffffffffffffffffffffffffffffffffffff1673ffffffffffffffffffffffffffffffffffffffff168152602001908152602001600020600001600301600301600560008b73ffffffffffffffffffffffffffffffffffffffff1673ffffffffffffffffffffffffffffffffffffffff168152602001908152602001600020600701848054600181600116156101000203166002900480601f016020809104026020016040519081016040528092919081815260200182805460018160011615610100020316600290048015613a0a5780601f106139df57610100808354040283529160200191613a0a565b820191906000526020600020905b8154815290600101906020018083116139ed57829003601f168201915b50505050509450838054600181600116156101000203166002900480601f016020809104026020016040519081016040528092919081815260200182805460018160011615610100020316600290048015613aa65780601f10613a7b57610100808354040283529160200191613aa6565b820191906000526020600020905b815481529060010190602001808311613a8957829003601f168201915b50505050509350828054600181600116156101000203166002900480601f016020809104026020016040519081016040528092919081815260200182805460018160011615610100020316600290048015613b425780601f10613b1757610100808354040283529160200191613b42565b820191906000526020600020905b815481529060010190602001808311613b2557829003601f168201915b50505050509250818054600181600116156101000203166002900480601f016020809104026020016040519081016040528092919081815260200182805460018160011615610100020316600290048015613bde5780601f10613bb357610100808354040283529160200191613bde565b820191906000526020600020905b815481529060010190602001808311613bc157829003601f168201915b50505050509150808054600181600116156101000203166002900480601f016020809104026020016040519081016040528092919081815260200182805460018160011615610100020316600290048015613c7a5780601f10613c4f57610100808354040283529160200191613c7a565b820191906000526020600020905b815481529060010190602001808311613c5d57829003601f168201915b505050505090509450945094509450945091939590929450565b60006060806060846040516020018082805190602001908083835b602083101515613cd45780518252602082019150602081019050602083039250613caf565b6001836020036101000a03801982511681845116808217855250505050505090500191505060405160208183030381529060405280519060200120600460008873ffffffffffffffffffffffffffffffffffffffff1673ffffffffffffffffffffffffffffffffffffffff1681526020019081526020016000206000016003016000016040516020018082805460018160011615610100020316600290048015613db55780601f10613d93576101008083540402835291820191613db5565b820191906000526020600020905b815481529060010190602001808311613da1575b50509150506040516020818303038152906040528051906020012014156141fb5760405160200180807f5245414459000000000000000000000000000000000000000000000000000000815250600501905060405160208183030381529060405280519060200120600460008873ffffffffffffffffffffffffffffffffffffffff1673ffffffffffffffffffffffffffffffffffffffff1681526020019081526020016000206007016040516020018082805460018160011615610100020316600290048015613ebd5780601f10613e9b576101008083540402835291820191613ebd565b820191906000526020600020905b815481529060010190602001808311613ea9575b50509150506040516020818303038152906040528051906020012014156141fa57600460008773ffffffffffffffffffffffffffffffffffffffff1673ffffffffffffffffffffffffffffffffffffffff16815260200190815260200160002060000160000160000160009054906101000a900473ffffffffffffffffffffffffffffffffffffffff16600460008873ffffffffffffffffffffffffffffffffffffffff1673ffffffffffffffffffffffffffffffffffffffff168152602001908152602001600020600001600001600101600460008973ffffffffffffffffffffffffffffffffffffffff1673ffffffffffffffffffffffffffffffffffffffff168152602001908152602001600020600001600001600201600460008a73ffffffffffffffffffffffffffffffffffffffff1673ffffffffffffffffffffffffffffffffffffffff168152602001908152602001600020600701828054600181600116156101000203166002900480601f0160208091040260200160405190810160405280929190818152602001828054600181600116156101000203166002900480156140ae5780601f10614083576101008083540402835291602001916140ae565b820191906000526020600020905b81548152906001019060200180831161409157829003601f168201915b50505050509250818054600181600116156101000203166002900480601f01602080910402602001604051908101604052809291908181526020018280546001816001161561010002031660029004801561414a5780601f1061411f5761010080835404028352916020019161414a565b820191906000526020600020905b81548152906001019060200180831161412d57829003601f168201915b50505050509150808054600181600116156101000203166002900480601f0160208091040260200160405190810160405280929190818152602001828054600181600116156101000203166002900480156141e65780601f106141bb576101008083540402835291602001916141e6565b820191906000526020600020905b8154815290600101906020018083116141c957829003601f168201915b5050505050905093509350935093506141fc565b5b5b92959194509250565b60006060806000808573ffffffffffffffffffffffffffffffffffffffff1673ffffffffffffffffffffffffffffffffffffffff16815260200190815260200160002060000160009054906101000a900473ffffffffffffffffffffffffffffffffffffffff166000808673ffffffffffffffffffffffffffffffffffffffff1673ffffffffffffffffffffffffffffffffffffffff1681526020019081526020016000206001016000808773ffffffffffffffffffffffffffffffffffffffff1673ffffffffffffffffffffffffffffffffffffffff168152602001908152602001600020600201818054600181600116156101000203166002900480601f0160208091040260200160405190810160405280929190818152602001828054600181600116156101000203166002900480156143835780601f1061435857610100808354040283529160200191614383565b820191906000526020600020905b81548152906001019060200180831161436657829003601f168201915b50505050509150808054600181600116156101000203166002900480601f01602080910402602001604051908101604052809291908181526020018280546001816001161561010002031660029004801561441f5780601f106143f45761010080835404028352916020019161441f565b820191906000526020600020905b81548152906001019060200180831161440257829003601f168201915b505050505090509250925092509193909250565b606080600660008473ffffffffffffffffffffffffffffffffffffffff1673ffffffffffffffffffffffffffffffffffffffff168152602001908152602001600020600401600660008573ffffffffffffffffffffffffffffffffffffffff1673ffffffffffffffffffffffffffffffffffffffff168152602001908152602001600020600301818054600181600116156101000203166002900480601f01602080910402602001604051908101604052809291908181526020018280546001816001161561010002031660029004801561454f5780601f106145245761010080835404028352916020019161454f565b820191906000526020600020905b81548152906001019060200180831161453257829003601f168201915b50505050509150808054600181600116156101000203166002900480601f0160208091040260200160405190810160405280929190818152602001828054600181600116156101000203166002900480156145eb5780601f106145c0576101008083540402835291602001916145eb565b820191906000526020600020905b8154815290600101906020018083116145ce57829003601f168201915b5050505050905091509150915091565b6060604051908101604052808473ffffffffffffffffffffffffffffffffffffffff168152602001838152602001828152506000808573ffffffffffffffffffffffffffffffffffffffff1673ffffffffffffffffffffffffffffffffffffffff16815260200190815260200160002060008201518160000160006101000a81548173ffffffffffffffffffffffffffffffffffffffff021916908373ffffffffffffffffffffffffffffffffffffffff16021790555060208201518160010190805190602001906146ce929190614a53565b5060408201518160020190805190602001906146eb929190614a53565b509050507f2d1da36c6be79e63f2418f04d88c73785748c549e72615c5150075b8f0c9fa2f6000808573ffffffffffffffffffffffffffffffffffffffff1673ffffffffffffffffffffffffffffffffffffffff16815260200190815260200160002060000160009054906101000a900473ffffffffffffffffffffffffffffffffffffffff166000808673ffffffffffffffffffffffffffffffffffffffff1673ffffffffffffffffffffffffffffffffffffffff1681526020019081526020016000206001016000808773ffffffffffffffffffffffffffffffffffffffff1673ffffffffffffffffffffffffffffffffffffffff168152602001908152602001600020600201604051808473ffffffffffffffffffffffffffffffffffffffff1673ffffffffffffffffffffffffffffffffffffffff16815260200180602001806020018381038352858181546001816001161561010002031660029004815260200191508054600181600116156101000203166002900480156148b35780601f10614888576101008083540402835291602001916148b3565b820191906000526020600020905b81548152906001019060200180831161489657829003601f168201915b50508381038252848181546001816001161561010002031660029004815260200191508054600181600116156101000203166002900480156149365780601f1061490b57610100808354040283529160200191614936565b820191906000526020600020905b81548152906001019060200180831161491957829003601f168201915b50509550505050505060405180910390a1505050565b828054600181600116156101000203166002900490600052602060002090601f016020900481019282601f1061498557805485556149c2565b828001600101855582156149c257600052602060002091601f016020900482015b828111156149c15782548255916001019190600101906149a6565b5b5090506149cf9190614ad3565b5090565b828054600181600116156101000203166002900490600052602060002090601f016020900481019282601f10614a1457805160ff1916838001178555614a42565b82800160010185558215614a42579182015b82811115614a41578251825591602001919060010190614a26565b5b509050614a4f9190614ad3565b5090565b828054600181600116156101000203166002900490600052602060002090601f016020900481019282601f10614a9457805160ff1916838001178555614ac2565b82800160010185558215614ac2579182015b82811115614ac1578251825591602001919060010190614aa6565b5b509050614acf9190614ad3565b5090565b614af591905b80821115614af1576000816000905550600101614ad9565b5090565b9056fea165627a7a72305820f66de09de05d86ed71fc01deb068ad0a62f89b299d77d05340e1854a0017a5250029",
  "source": "pragma solidity >=0.4.19 <0.6.0;\n\nimport \"./SGB.sol\";\n\ncontract SCVehicle {\n\tstruct Vehicles {\n\t\taddress PK;\n\t\tstring loc;\n\t\tstring status;\n\t}\n\n\tstruct Bins {\n\t\tstring ID;\n\t\tstring loc;\n\t\tstring status;\n\t\tstring seg;\n\t}\n\n\tstruct Notification {\n\t\tVehicles vehicle;\n\t\tBins bin;\n\t}\n\n\tstruct Response {\n\t\tNotification notify;\n\t\tstring resp;\n\t}\n\n\tstruct RouteCollect {\n\t\tNotification notify;\n\t\tstring route;\n\t}\n\n\tstruct RouteDispose {\n\t\tVehicles vehicle;\n\t\tstring disposalArea;\n\t\tstring route;\n\n\t}\n\n\tevent SGBNotificationEvent(address PK, string vehicleLoc, string vehicleStatus, string binID, string binStatus, string binLoc, string binSeg);\n\tevent ResponseEvent(address PK, string vehicleLoc, string vehicleStatus, string binID, string binStatus, string binLoc, string binSeg, string resp);\n\tevent OptimalRouteCollectEvent(address PK, string vehicleLoc, string vehicleStatus, string binID, string binStatus, string binLoc, string binSeg, string route);\n\tevent OptimalRouteDisposeEvent(address PK, string vehicleLoc, string vehicleStatus, string disposalArea, string route);\n\tevent VehicleStatusEvent(address PK, string vehicleLoc, string vehicleStatus);\n\tevent RegisterVehicleEvent(address PK, string vehicleLoc, string vehicleStatus);\n\n\tmapping (address => Vehicles) vehicle;\n\tmapping (address => Notification) sgbNotification;\n\tmapping (address => string) vehicleSpace;\n\tmapping (address => string) vehicleWeight;\n\tmapping (address => Response) response;\n\tmapping (address => RouteCollect) routeCollect;\n\tmapping (address => RouteDispose) routeDispose;\n\n\tstring vehicleStatusFull = \"FULL\";\n\tstring vehicleStatusAvailable = \"AVAILABLE\";\n\tstring respTrue = \"READY\";\n\tstring respFalse = \"NOT READY\";\n\n\tuint256 constant vehicleThresholdWeight = 50;\n\tuint256 constant vehicleThresholdSpace  = 10;\n\n\tSGB sgb;\n    constructor(SGB _sgb) public {\t\n    \tsgb = _sgb;\n    }\n\n    function registerVehicle(address _vehiclePK, string memory _vehicleLoc, string memory _vehicleStatus) public {\n    \tvehicle[_vehiclePK] = Vehicles(_vehiclePK, _vehicleLoc, _vehicleStatus);\n    \temit RegisterVehicleEvent(vehicle[_vehiclePK].PK, vehicle[_vehiclePK].loc, vehicle[_vehiclePK].status);\n    }\n\n    function SGBNotification(address _vehiclePK, string memory _binID) public {\n    \t(string memory ID, string memory status, string memory loc, string memory seg) = sgb.getSGBStatus(_binID);\n    \tVehicles storage v = vehicle[_vehiclePK];\n\n    \tsgbNotification[_vehiclePK].vehicle.PK = v.PK;\n    \tsgbNotification[_vehiclePK].vehicle.loc = v.loc;\n    \tsgbNotification[_vehiclePK].vehicle.status = v.status;\n\n    \tsgbNotification[_vehiclePK].bin.ID = ID;\n    \tsgbNotification[_vehiclePK].bin.loc = loc;\n    \tsgbNotification[_vehiclePK].bin.status = status;\n    \tsgbNotification[_vehiclePK].bin.seg = seg;\n\n    \temit SGBNotificationEvent(v.PK, v.loc, v.status, ID, status, loc, seg);\n    }\n\n    function vehicleStatus(address _vehiclePK, uint256 _vehicleSpace, uint256 _vehicleWeight) public  {\t\t\t\t\n\t\tif (_vehicleSpace <= vehicleThresholdSpace || _vehicleWeight >= vehicleThresholdWeight )\n\t\t\tvehicle[_vehiclePK].status = vehicleStatusFull;\n\t\telse\n\t\t\tvehicle[_vehiclePK].status = vehicleStatusAvailable;\n\n\t\temit VehicleStatusEvent(vehicle[_vehiclePK].PK, vehicle[_vehiclePK].loc, vehicle[_vehiclePK].status);\n    }\n\n    function getVehicleStatus( address _vehiclePK ) public view returns(address, string memory, string memory) {\n    \t\n    \treturn (vehicle[_vehiclePK].PK, vehicle[_vehiclePK].loc, vehicle[_vehiclePK].status);\t\n    }\n    \n    function requestResponse(address _vehiclePK) public {\n\t\tBins storage b = sgbNotification[_vehiclePK].bin;\n\t\tVehicles storage v = sgbNotification[_vehiclePK].vehicle;\n\t\t\n\t\tresponse[_vehiclePK].notify.vehicle.PK=v.PK;\n\t\tresponse[_vehiclePK].notify.vehicle.loc=v.loc;\n\t\tresponse[_vehiclePK].notify.vehicle.status=v.status;\n\n\t\tresponse[_vehiclePK].notify.bin.ID=b.ID;\n\t\tresponse[_vehiclePK].notify.bin.loc=b.loc;\n\t\tresponse[_vehiclePK].notify.bin.status=b.status;\n\t\tresponse[_vehiclePK].notify.bin.seg=b.seg;\n\t\t\n\t\tif (keccak256(abi.encodePacked(vehicle[_vehiclePK].status )) == keccak256(abi.encodePacked(vehicleStatusAvailable))){\n\t\t\tresponse[_vehiclePK].resp=respTrue;\n\t\t\temit ResponseEvent(vehicle[_vehiclePK].PK, vehicle[_vehiclePK].loc, vehicle[_vehiclePK].status, b.ID, b.status, b.loc, b.seg, respTrue);\t    \t\n\t\t}\n\t\telse\n\t\t{\n\t\t\tresponse[_vehiclePK].resp=respFalse;\n\t\t\temit ResponseEvent(vehicle[_vehiclePK].PK, vehicle[_vehiclePK].loc, vehicle[_vehiclePK].status, b.ID, b.status, b.loc, b.seg, respFalse);\t    \t\n\t\t}\n    }\n\n    function getRequestResponse(address _vehiclePK, string memory _binID) public view returns(address, string memory, string memory, string memory) {\n\n\t\tif(keccak256(abi.encodePacked(response[_vehiclePK].notify.bin.ID)) == keccak256(abi.encodePacked(_binID)))\n\t\t\tif(keccak256(abi.encodePacked(response[_vehiclePK].resp)) == keccak256(abi.encodePacked(\"READY\")))\n\t\t\t\treturn (response[_vehiclePK].notify.vehicle.PK, response[_vehiclePK].notify.vehicle.loc, response[_vehiclePK].notify.vehicle.status, response[_vehiclePK].resp);\n    }\n\n    function optimalRouteCollect (address _vehiclePK, string memory _route) public {\n    \t//(string memory _binID, string memory _binStatus, string memory _binLoc, string memory _binSeg) = sgb.getSGBStatus(_binID);\n \t\tBins storage b = sgbNotification[_vehiclePK].bin;\n \t\tVehicles storage v = sgbNotification[_vehiclePK].vehicle;\n\n\t\trouteCollect[_vehiclePK].notify.vehicle.PK=v.PK;\n\t\trouteCollect[_vehiclePK].notify.vehicle.loc=v.loc;\n\t\trouteCollect[_vehiclePK].notify.vehicle.status=v.status;\n\n\t\trouteCollect[_vehiclePK].notify.bin.ID=b.ID;\n\t\trouteCollect[_vehiclePK].notify.bin.loc=b.loc;\n\t\trouteCollect[_vehiclePK].notify.bin.status=b.status;\n\t\trouteCollect[_vehiclePK].notify.bin.seg=b.seg;\n\n\t\trouteCollect[_vehiclePK].route=_route;\n\n\t\temit OptimalRouteCollectEvent(v.PK, v.loc, v.status, b.ID, b.status, b.loc, b.seg, _route);\n    }\n\n    function getOptimalRouteCollect (address _vehiclePK) public view returns(string memory, string memory, string memory, string memory, string memory) {\n\t\treturn(routeCollect[_vehiclePK].notify.bin.ID, routeCollect[_vehiclePK].notify.bin.loc, routeCollect[_vehiclePK].notify.bin.status, routeCollect[_vehiclePK].notify.bin.seg, routeCollect[_vehiclePK].route ); \t\n    }\n\n    function optimalRouteDispose(address _vehiclePK, string memory _disposalArea , string memory _route) public {\n    \trouteDispose[_vehiclePK].vehicle.PK = vehicle[_vehiclePK].PK;\n    \trouteDispose[_vehiclePK].vehicle.loc = vehicle[_vehiclePK].loc;\n    \trouteDispose[_vehiclePK].vehicle.status = vehicle[_vehiclePK].status;\n    \trouteDispose[_vehiclePK].route = _route;\n\n    \temit OptimalRouteDisposeEvent(vehicle[_vehiclePK].PK, vehicle[_vehiclePK].loc, vehicle[_vehiclePK].status, _disposalArea, _route);\n    }\n\n    function getOptimalRouteDispose(address _vehiclePK) public view returns (string memory, string memory) {\n    \treturn(routeDispose[_vehiclePK].route, routeDispose[_vehiclePK].disposalArea); \t\n    }\n\n}\n",
  "sourcePath": "/root/SGB/contracts/SCVehicle.sol",
  "compiler": {
    "name": "solc",
    "version": "0.5.0+commit.1d4f565a.Emscripten.clang"
  },
  "schemaVersion": "3.0.11",
  "updatedAt": "2019-08-11T20:31:41.121Z",
  "devdoc": {
    "methods": {}
  },
  "userdoc": {
    "methods": {}
  }
}