{
  "contractName": "SCVehicle",
  "abi": [
    {
      "inputs": [
        {
          "name": "_sgb",
          "type": "address"
        }
      ],
      "payable": false,
      "stateMutability": "nonpayable",
      "type": "constructor"
    },
    {
      "anonymous": false,
      "inputs": [
        {
          "indexed": false,
          "name": "PK",
          "type": "address"
        },
        {
          "indexed": false,
          "name": "vehicleLoc",
          "type": "string"
        },
        {
          "indexed": false,
          "name": "vehicleStatus",
          "type": "string"
        },
        {
          "indexed": false,
          "name": "binID",
          "type": "string"
        },
        {
          "indexed": false,
          "name": "binStatus",
          "type": "string"
        },
        {
          "indexed": false,
          "name": "binLoc",
          "type": "string"
        },
        {
          "indexed": false,
          "name": "binSeg",
          "type": "string"
        }
      ],
      "name": "SGBNotificationEvent",
      "type": "event"
    },
    {
      "anonymous": false,
      "inputs": [
        {
          "indexed": false,
          "name": "PK",
          "type": "address"
        },
        {
          "indexed": false,
          "name": "vehicleLoc",
          "type": "string"
        },
        {
          "indexed": false,
          "name": "vehicleStatus",
          "type": "string"
        },
        {
          "indexed": false,
          "name": "binID",
          "type": "string"
        },
        {
          "indexed": false,
          "name": "binStatus",
          "type": "string"
        },
        {
          "indexed": false,
          "name": "binLoc",
          "type": "string"
        },
        {
          "indexed": false,
          "name": "binSeg",
          "type": "string"
        },
        {
          "indexed": false,
          "name": "resp",
          "type": "string"
        }
      ],
      "name": "ResponseEvent",
      "type": "event"
    },
    {
      "anonymous": false,
      "inputs": [
        {
          "indexed": false,
          "name": "PK",
          "type": "address"
        },
        {
          "indexed": false,
          "name": "vehicleLoc",
          "type": "string"
        },
        {
          "indexed": false,
          "name": "vehicleStatus",
          "type": "string"
        },
        {
          "indexed": false,
          "name": "binID",
          "type": "string"
        },
        {
          "indexed": false,
          "name": "binStatus",
          "type": "string"
        },
        {
          "indexed": false,
          "name": "binLoc",
          "type": "string"
        },
        {
          "indexed": false,
          "name": "binSeg",
          "type": "string"
        },
        {
          "indexed": false,
          "name": "route",
          "type": "string"
        }
      ],
      "name": "OptimalRouteCollectEvent",
      "type": "event"
    },
    {
      "anonymous": false,
      "inputs": [
        {
          "indexed": false,
          "name": "PK",
          "type": "address"
        },
        {
          "indexed": false,
          "name": "vehicleLoc",
          "type": "string"
        },
        {
          "indexed": false,
          "name": "vehicleStatus",
          "type": "string"
        },
        {
          "indexed": false,
          "name": "disposalArea",
          "type": "string"
        },
        {
          "indexed": false,
          "name": "route",
          "type": "string"
        }
      ],
      "name": "OptimalRouteDisposeEvent",
      "type": "event"
    },
    {
      "anonymous": false,
      "inputs": [
        {
          "indexed": false,
          "name": "PK",
          "type": "address"
        },
        {
          "indexed": false,
          "name": "vehicleLoc",
          "type": "string"
        },
        {
          "indexed": false,
          "name": "vehicleStatus",
          "type": "string"
        }
      ],
      "name": "VehicleStatusEvent",
      "type": "event"
    },
    {
      "anonymous": false,
      "inputs": [
        {
          "indexed": false,
          "name": "PK",
          "type": "address"
        },
        {
          "indexed": false,
          "name": "vehicleLoc",
          "type": "string"
        },
        {
          "indexed": false,
          "name": "vehicleStatus",
          "type": "string"
        }
      ],
      "name": "RegisterVehicleEvent",
      "type": "event"
    },
    {
      "constant": false,
      "inputs": [
        {
          "name": "_vehiclePK",
          "type": "address"
        },
        {
          "name": "_vehicleLoc",
          "type": "string"
        },
        {
          "name": "_vehicleStatus",
          "type": "string"
        }
      ],
      "name": "registerVehicle",
      "outputs": [],
      "payable": false,
      "stateMutability": "nonpayable",
      "type": "function"
    },
    {
      "constant": false,
      "inputs": [
        {
          "name": "_vehiclePK",
          "type": "address"
        },
        {
          "name": "_binID",
          "type": "string"
        }
      ],
      "name": "SGBNotification",
      "outputs": [],
      "payable": false,
      "stateMutability": "nonpayable",
      "type": "function"
    },
    {
      "constant": false,
      "inputs": [
        {
          "name": "_vehiclePK",
          "type": "address"
        },
        {
          "name": "_vehicleSpace",
          "type": "uint256"
        },
        {
          "name": "_vehicleWeight",
          "type": "uint256"
        }
      ],
      "name": "vehicleStatus",
      "outputs": [],
      "payable": false,
      "stateMutability": "nonpayable",
      "type": "function"
    },
    {
      "constant": true,
      "inputs": [
        {
          "name": "_vehiclePK",
          "type": "address"
        }
      ],
      "name": "getVehicleStatus",
      "outputs": [
        {
          "name": "",
          "type": "address"
        },
        {
          "name": "",
          "type": "string"
        },
        {
          "name": "",
          "type": "string"
        }
      ],
      "payable": false,
      "stateMutability": "view",
      "type": "function"
    },
    {
      "constant": false,
      "inputs": [
        {
          "name": "_vehiclePK",
          "type": "address"
        }
      ],
      "name": "requestResponse",
      "outputs": [],
      "payable": false,
      "stateMutability": "nonpayable",
      "type": "function"
    },
    {
      "constant": true,
      "inputs": [
        {
          "name": "_vehiclePK",
          "type": "address"
        },
        {
          "name": "_binID",
          "type": "string"
        }
      ],
      "name": "getRequestResponse",
      "outputs": [
        {
          "name": "",
          "type": "address"
        },
        {
          "name": "",
          "type": "string"
        },
        {
          "name": "",
          "type": "string"
        },
        {
          "name": "",
          "type": "string"
        }
      ],
      "payable": false,
      "stateMutability": "view",
      "type": "function"
    },
    {
      "constant": false,
      "inputs": [
        {
          "name": "_vehiclePK",
          "type": "address"
        },
        {
          "name": "_route",
          "type": "string"
        }
      ],
      "name": "optimalRouteCollect",
      "outputs": [],
      "payable": false,
      "stateMutability": "nonpayable",
      "type": "function"
    },
    {
      "constant": true,
      "inputs": [
        {
          "name": "_vehiclePK",
          "type": "address"
        }
      ],
      "name": "getOptimalRouteCollect",
      "outputs": [
        {
          "name": "",
          "type": "string"
        },
        {
          "name": "",
          "type": "string"
        },
        {
          "name": "",
          "type": "string"
        },
        {
          "name": "",
          "type": "string"
        }
      ],
      "payable": false,
      "stateMutability": "view",
      "type": "function"
    },
    {
      "constant": false,
      "inputs": [
        {
          "name": "_vehiclePK",
          "type": "address"
        },
        {
          "name": "_disposalArea",
          "type": "string"
        },
        {
          "name": "_route",
          "type": "string"
        }
      ],
      "name": "optimalRouteDispose",
      "outputs": [],
      "payable": false,
      "stateMutability": "nonpayable",
      "type": "function"
    },
    {
      "constant": true,
      "inputs": [
        {
          "name": "_vehiclePK",
          "type": "address"
        }
      ],
      "name": "getOptimalRouteDispose",
      "outputs": [
        {
          "name": "",
          "type": "string"
        },
        {
          "name": "",
          "type": "string"
        }
      ],
      "payable": false,
      "stateMutability": "view",
      "type": "function"
    }
  ],
  "bytecode": "0x60806040526040805190810160405280600481526020017f46554c4c00000000000000000000000000000000000000000000000000000000815250600790805190602001906200005192919062000176565b506040805190810160405280600981526020017f415641494c41424c450000000000000000000000000000000000000000000000815250600890805190602001906200009f92919062000176565b506040805190810160405280600581526020017f524541445900000000000000000000000000000000000000000000000000000081525060099080519060200190620000ed92919062000176565b50348015620000fb57600080fd5b5060405160208062004689833981018060405260208110156200011d57600080fd5b810190808051906020019092919050505080600a60006101000a81548173ffffffffffffffffffffffffffffffffffffffff021916908373ffffffffffffffffffffffffffffffffffffffff1602179055505062000225565b828054600181600116156101000203166002900490600052602060002090601f016020900481019282601f10620001b957805160ff1916838001178555620001ea565b82800160010185558215620001ea579182015b82811115620001e9578251825591602001919060010190620001cc565b5b509050620001f99190620001fd565b5090565b6200022291905b808211156200021e57600081600090555060010162000204565b5090565b90565b61445480620002356000396000f3fe6080604052600436106100a4576000357c0100000000000000000000000000000000000000000000000000000000900463ffffffff1680630e1241b6146100a95780632e03b6a9146100fa5780635074b3d6146102795780636cc7feb8146102de57806372b59af7146103c6578063791fb886146104ae5780637f80708e146106bc57806381a7c64714610928578063a06001d314610a91578063cc6168fc14610bc7575b600080fd5b3480156100b557600080fd5b506100f8600480360360208110156100cc57600080fd5b81019080803573ffffffffffffffffffffffffffffffffffffffff169060200190929190505050610d46565b005b34801561010657600080fd5b506102776004803603606081101561011d57600080fd5b81019080803573ffffffffffffffffffffffffffffffffffffffff1690602001909291908035906020019064010000000081111561015a57600080fd5b82018360208201111561016c57600080fd5b8035906020019184600183028401116401000000008311171561018e57600080fd5b91908080601f016020809104026020016040519081016040528093929190818152602001838380828437600081840152601f19601f820116905080830192505050505050509192919290803590602001906401000000008111156101f157600080fd5b82018360208201111561020357600080fd5b8035906020019184600183028401116401000000008311171561022557600080fd5b91908080601f016020809104026020016040519081016040528093929190818152602001838380828437600081840152601f19601f8201169050808301925050505050505091929192905050506117c1565b005b34801561028557600080fd5b506102dc6004803603606081101561029c57600080fd5b81019080803573ffffffffffffffffffffffffffffffffffffffff1690602001909291908035906020019092919080359060200190929190505050611d80565b005b3480156102ea57600080fd5b506103c46004803603604081101561030157600080fd5b81019080803573ffffffffffffffffffffffffffffffffffffffff1690602001909291908035906020019064010000000081111561033e57600080fd5b82018360208201111561035057600080fd5b8035906020019184600183028401116401000000008311171561037257600080fd5b91908080601f016020809104026020016040519081016040528093929190818152602001838380828437600081840152601f19601f8201169050808301925050505050505091929192905050506120bf565b005b3480156103d257600080fd5b506104ac600480360360408110156103e957600080fd5b81019080803573ffffffffffffffffffffffffffffffffffffffff1690602001909291908035906020019064010000000081111561042657600080fd5b82018360208201111561043857600080fd5b8035906020019184600183028401116401000000008311171561045a57600080fd5b91908080601f016020809104026020016040519081016040528093929190818152602001838380828437600081840152601f19601f8201169050808301925050505050505091929192905050506129c1565b005b3480156104ba57600080fd5b506104fd600480360360208110156104d157600080fd5b81019080803573ffffffffffffffffffffffffffffffffffffffff16906020019092919050505061321f565b6040518080602001806020018060200180602001858103855289818151815260200191508051906020019080838360005b8381101561054957808201518184015260208101905061052e565b50505050905090810190601f1680156105765780820380516001836020036101000a031916815260200191505b50858103845288818151815260200191508051906020019080838360005b838110156105af578082015181840152602081019050610594565b50505050905090810190601f1680156105dc5780820380516001836020036101000a031916815260200191505b50858103835287818151815260200191508051906020019080838360005b838110156106155780820151818401526020810190506105fa565b50505050905090810190601f1680156106425780820380516001836020036101000a031916815260200191505b50858103825286818151815260200191508051906020019080838360005b8381101561067b578082015181840152602081019050610660565b50505050905090810190601f1680156106a85780820380516001836020036101000a031916815260200191505b509850505050505050505060405180910390f35b3480156106c857600080fd5b506107a2600480360360408110156106df57600080fd5b81019080803573ffffffffffffffffffffffffffffffffffffffff1690602001909291908035906020019064010000000081111561071c57600080fd5b82018360208201111561072e57600080fd5b8035906020019184600183028401116401000000008311171561075057600080fd5b91908080601f016020809104026020016040519081016040528093929190818152602001838380828437600081840152601f19601f8201169050808301925050505050505091929192905050506135c4565b604051808573ffffffffffffffffffffffffffffffffffffffff1673ffffffffffffffffffffffffffffffffffffffff168152602001806020018060200180602001848103845287818151815260200191508051906020019080838360005b8381101561081c578082015181840152602081019050610801565b50505050905090810190601f1680156108495780820380516001836020036101000a031916815260200191505b50848103835286818151815260200191508051906020019080838360005b83811015610882578082015181840152602081019050610867565b50505050905090810190601f1680156108af5780820380516001836020036101000a031916815260200191505b50848103825285818151815260200191508051906020019080838360005b838110156108e85780820151818401526020810190506108cd565b50505050905090810190601f1680156109155780820380516001836020036101000a031916815260200191505b5097505050505050505060405180910390f35b34801561093457600080fd5b506109776004803603602081101561094b57600080fd5b81019080803573ffffffffffffffffffffffffffffffffffffffff169060200190929190505050613b35565b604051808473ffffffffffffffffffffffffffffffffffffffff1673ffffffffffffffffffffffffffffffffffffffff1681526020018060200180602001838103835285818151815260200191508051906020019080838360005b838110156109ed5780820151818401526020810190506109d2565b50505050905090810190601f168015610a1a5780820380516001836020036101000a031916815260200191505b50838103825284818151815260200191508051906020019080838360005b83811015610a53578082015181840152602081019050610a38565b50505050905090810190601f168015610a805780820380516001836020036101000a031916815260200191505b509550505050505060405180910390f35b348015610a9d57600080fd5b50610ae060048036036020811015610ab457600080fd5b81019080803573ffffffffffffffffffffffffffffffffffffffff169060200190929190505050613d63565b604051808060200180602001838103835285818151815260200191508051906020019080838360005b83811015610b24578082015181840152602081019050610b09565b50505050905090810190601f168015610b515780820380516001836020036101000a031916815260200191505b50838103825284818151815260200191508051906020019080838360005b83811015610b8a578082015181840152602081019050610b6f565b50505050905090810190601f168015610bb75780820380516001836020036101000a031916815260200191505b5094505050505060405180910390f35b348015610bd357600080fd5b50610d4460048036036060811015610bea57600080fd5b81019080803573ffffffffffffffffffffffffffffffffffffffff16906020019092919080359060200190640100000000811115610c2757600080fd5b820183602082011115610c3957600080fd5b80359060200191846001830284011164010000000083111715610c5b57600080fd5b91908080601f016020809104026020016040519081016040528093929190818152602001838380828437600081840152601f19601f82011690508083019250505050505050919291929080359060200190640100000000811115610cbe57600080fd5b820183602082011115610cd057600080fd5b80359060200191846001830284011164010000000083111715610cf257600080fd5b91908080601f016020809104026020016040519081016040528093929190818152602001838380828437600081840152601f19601f820116905080830192505050505050509192919290505050613f2b565b005b6000600160008373ffffffffffffffffffffffffffffffffffffffff1673ffffffffffffffffffffffffffffffffffffffff16815260200190815260200160002060030190506000600160008473ffffffffffffffffffffffffffffffffffffffff1673ffffffffffffffffffffffffffffffffffffffff168152602001908152602001600020600001905060086040516020018082805460018160011615610100020316600290048015610e325780601f10610e10576101008083540402835291820191610e32565b820191906000526020600020905b815481529060010190602001808311610e1e575b5050915050604051602081830303815290604052805190602001206000808573ffffffffffffffffffffffffffffffffffffffff1673ffffffffffffffffffffffffffffffffffffffff1681526020019081526020016000206002016040516020018082805460018160011615610100020316600290048015610eec5780601f10610eca576101008083540402835291820191610eec565b820191906000526020600020905b815481529060010190602001808311610ed8575b50509150506040516020818303038152906040528051906020012014156117bc578060000160009054906101000a900473ffffffffffffffffffffffffffffffffffffffff16600460008573ffffffffffffffffffffffffffffffffffffffff1673ffffffffffffffffffffffffffffffffffffffff16815260200190815260200160002060000160000160000160006101000a81548173ffffffffffffffffffffffffffffffffffffffff021916908373ffffffffffffffffffffffffffffffffffffffff16021790555080600101600460008573ffffffffffffffffffffffffffffffffffffffff1673ffffffffffffffffffffffffffffffffffffffff168152602001908152602001600020600001600001600101908054600181600116156101000203166002900461102392919061427c565b5080600201600460008573ffffffffffffffffffffffffffffffffffffffff1673ffffffffffffffffffffffffffffffffffffffff168152602001908152602001600020600001600001600201908054600181600116156101000203166002900461108f92919061427c565b5081600001600460008573ffffffffffffffffffffffffffffffffffffffff1673ffffffffffffffffffffffffffffffffffffffff16815260200190815260200160002060000160030160000190805460018160011615610100020316600290046110fb92919061427c565b5081600101600460008573ffffffffffffffffffffffffffffffffffffffff1673ffffffffffffffffffffffffffffffffffffffff168152602001908152602001600020600001600301600101908054600181600116156101000203166002900461116792919061427c565b5081600201600460008573ffffffffffffffffffffffffffffffffffffffff1673ffffffffffffffffffffffffffffffffffffffff16815260200190815260200160002060000160030160020190805460018160011615610100020316600290046111d392919061427c565b5081600301600460008573ffffffffffffffffffffffffffffffffffffffff1673ffffffffffffffffffffffffffffffffffffffff168152602001908152602001600020600001600301600301908054600181600116156101000203166002900461123f92919061427c565b506009600460008573ffffffffffffffffffffffffffffffffffffffff1673ffffffffffffffffffffffffffffffffffffffff16815260200190815260200160002060070190805460018160011615610100020316600290046112a392919061427c565b507f86d67216a2abe0b4817b09b3a708edba6de7b8a55b1cc137c4832f0e09d33b1e6000808573ffffffffffffffffffffffffffffffffffffffff1673ffffffffffffffffffffffffffffffffffffffff16815260200190815260200160002060000160009054906101000a900473ffffffffffffffffffffffffffffffffffffffff166000808673ffffffffffffffffffffffffffffffffffffffff1673ffffffffffffffffffffffffffffffffffffffff1681526020019081526020016000206001016000808773ffffffffffffffffffffffffffffffffffffffff1673ffffffffffffffffffffffffffffffffffffffff168152602001908152602001600020600201856000018660020187600101886003016009604051808973ffffffffffffffffffffffffffffffffffffffff1673ffffffffffffffffffffffffffffffffffffffff1681526020018060200180602001806020018060200180602001806020018060200188810388528f81815460018160011615610100020316600290048152602001915080546001816001161561010002031660029004801561148e5780601f106114635761010080835404028352916020019161148e565b820191906000526020600020905b81548152906001019060200180831161147157829003601f168201915b505088810387528e8181546001816001161561010002031660029004815260200191508054600181600116156101000203166002900480156115115780601f106114e657610100808354040283529160200191611511565b820191906000526020600020905b8154815290600101906020018083116114f457829003601f168201915b505088810386528d8181546001816001161561010002031660029004815260200191508054600181600116156101000203166002900480156115945780601f1061156957610100808354040283529160200191611594565b820191906000526020600020905b81548152906001019060200180831161157757829003601f168201915b505088810385528c8181546001816001161561010002031660029004815260200191508054600181600116156101000203166002900480156116175780601f106115ec57610100808354040283529160200191611617565b820191906000526020600020905b8154815290600101906020018083116115fa57829003601f168201915b505088810384528b81815460018160011615610100020316600290048152602001915080546001816001161561010002031660029004801561169a5780601f1061166f5761010080835404028352916020019161169a565b820191906000526020600020905b81548152906001019060200180831161167d57829003601f168201915b505088810383528a81815460018160011615610100020316600290048152602001915080546001816001161561010002031660029004801561171d5780601f106116f25761010080835404028352916020019161171d565b820191906000526020600020905b81548152906001019060200180831161170057829003601f168201915b50508881038252898181546001816001161561010002031660029004815260200191508054600181600116156101000203166002900480156117a05780601f10611775576101008083540402835291602001916117a0565b820191906000526020600020905b81548152906001019060200180831161178357829003601f168201915b50509f5050505050505050505050505050505060405180910390a15b505050565b6000808473ffffffffffffffffffffffffffffffffffffffff1673ffffffffffffffffffffffffffffffffffffffff16815260200190815260200160002060000160009054906101000a900473ffffffffffffffffffffffffffffffffffffffff16600660008573ffffffffffffffffffffffffffffffffffffffff1673ffffffffffffffffffffffffffffffffffffffff16815260200190815260200160002060000160000160006101000a81548173ffffffffffffffffffffffffffffffffffffffff021916908373ffffffffffffffffffffffffffffffffffffffff1602179055506000808473ffffffffffffffffffffffffffffffffffffffff1673ffffffffffffffffffffffffffffffffffffffff168152602001908152602001600020600101600660008573ffffffffffffffffffffffffffffffffffffffff1673ffffffffffffffffffffffffffffffffffffffff168152602001908152602001600020600001600101908054600181600116156101000203166002900461194b92919061427c565b506000808473ffffffffffffffffffffffffffffffffffffffff1673ffffffffffffffffffffffffffffffffffffffff168152602001908152602001600020600201600660008573ffffffffffffffffffffffffffffffffffffffff1673ffffffffffffffffffffffffffffffffffffffff16815260200190815260200160002060000160020190805460018160011615610100020316600290046119f192919061427c565b5080600660008573ffffffffffffffffffffffffffffffffffffffff1673ffffffffffffffffffffffffffffffffffffffff1681526020019081526020016000206004019080519060200190611a48929190614303565b507fca361f982b5f8c50ed68894a3b53f1dc6351b4aa985b1dbc49b16c8fedff119f6000808573ffffffffffffffffffffffffffffffffffffffff1673ffffffffffffffffffffffffffffffffffffffff16815260200190815260200160002060000160009054906101000a900473ffffffffffffffffffffffffffffffffffffffff166000808673ffffffffffffffffffffffffffffffffffffffff1673ffffffffffffffffffffffffffffffffffffffff1681526020019081526020016000206001016000808773ffffffffffffffffffffffffffffffffffffffff1673ffffffffffffffffffffffffffffffffffffffff1681526020019081526020016000206002018585604051808673ffffffffffffffffffffffffffffffffffffffff1673ffffffffffffffffffffffffffffffffffffffff16815260200180602001806020018060200180602001858103855289818154600181600116156101000203166002900481526020019150805460018160011615610100020316600290048015611c175780601f10611bec57610100808354040283529160200191611c17565b820191906000526020600020905b815481529060010190602001808311611bfa57829003601f168201915b5050858103845288818154600181600116156101000203166002900481526020019150805460018160011615610100020316600290048015611c9a5780601f10611c6f57610100808354040283529160200191611c9a565b820191906000526020600020905b815481529060010190602001808311611c7d57829003601f168201915b5050858103835287818151815260200191508051906020019080838360005b83811015611cd4578082015181840152602081019050611cb9565b50505050905090810190601f168015611d015780820380516001836020036101000a031916815260200191505b50858103825286818151815260200191508051906020019080838360005b83811015611d3a578082015181840152602081019050611d1f565b50505050905090810190601f168015611d675780820380516001836020036101000a031916815260200191505b50995050505050505050505060405180910390a1505050565b600a82111580611d91575060328110155b15611dfe5760076000808573ffffffffffffffffffffffffffffffffffffffff1673ffffffffffffffffffffffffffffffffffffffff1681526020019081526020016000206002019080546001816001161561010002031660029004611df892919061427c565b50611e62565b60086000808573ffffffffffffffffffffffffffffffffffffffff1673ffffffffffffffffffffffffffffffffffffffff1681526020019081526020016000206002019080546001816001161561010002031660029004611e6092919061427c565b505b7f661e4ffec9e332d7861a5712ea06ba6d53aba0eff22b48de4e4ded7b8a46f92e6000808573ffffffffffffffffffffffffffffffffffffffff1673ffffffffffffffffffffffffffffffffffffffff16815260200190815260200160002060000160009054906101000a900473ffffffffffffffffffffffffffffffffffffffff166000808673ffffffffffffffffffffffffffffffffffffffff1673ffffffffffffffffffffffffffffffffffffffff1681526020019081526020016000206001016000808773ffffffffffffffffffffffffffffffffffffffff1673ffffffffffffffffffffffffffffffffffffffff168152602001908152602001600020600201604051808473ffffffffffffffffffffffffffffffffffffffff1673ffffffffffffffffffffffffffffffffffffffff16815260200180602001806020018381038352858181546001816001161561010002031660029004815260200191508054600181600116156101000203166002900480156120265780601f10611ffb57610100808354040283529160200191612026565b820191906000526020600020905b81548152906001019060200180831161200957829003601f168201915b50508381038252848181546001816001161561010002031660029004815260200191508054600181600116156101000203166002900480156120a95780601f1061207e576101008083540402835291602001916120a9565b820191906000526020600020905b81548152906001019060200180831161208c57829003601f168201915b50509550505050505060405180910390a1505050565b606080606080600a60009054906101000a900473ffffffffffffffffffffffffffffffffffffffff1673ffffffffffffffffffffffffffffffffffffffff16636a6794ba866040518263ffffffff167c01000000000000000000000000000000000000000000000000000000000281526004018080602001828103825283818151815260200191508051906020019080838360005b8381101561216f578082015181840152602081019050612154565b50505050905090810190601f16801561219c5780820380516001836020036101000a031916815260200191505b509250505060006040518083038186803b1580156121b957600080fd5b505afa1580156121cd573d6000803e3d6000fd5b505050506040513d6000823e3d601f19601f8201168201806040525060808110156121f757600080fd5b81019080805164010000000081111561220f57600080fd5b8281019050602081018481111561222557600080fd5b815185600182028301116401000000008211171561224257600080fd5b5050929190602001805164010000000081111561225e57600080fd5b8281019050602081018481111561227457600080fd5b815185600182028301116401000000008211171561229157600080fd5b505092919060200180516401000000008111156122ad57600080fd5b828101905060208101848111156122c357600080fd5b81518560018202830111640100000000821117156122e057600080fd5b505092919060200180516401000000008111156122fc57600080fd5b8281019050602081018481111561231257600080fd5b815185600182028301116401000000008211171561232f57600080fd5b5050929190505050935093509350935060008060008873ffffffffffffffffffffffffffffffffffffffff1673ffffffffffffffffffffffffffffffffffffffff16815260200190815260200160002090508060000160009054906101000a900473ffffffffffffffffffffffffffffffffffffffff16600160008973ffffffffffffffffffffffffffffffffffffffff1673ffffffffffffffffffffffffffffffffffffffff16815260200190815260200160002060000160000160006101000a81548173ffffffffffffffffffffffffffffffffffffffff021916908373ffffffffffffffffffffffffffffffffffffffff16021790555080600101600160008973ffffffffffffffffffffffffffffffffffffffff1673ffffffffffffffffffffffffffffffffffffffff168152602001908152602001600020600001600101908054600181600116156101000203166002900461249192919061427c565b5080600201600160008973ffffffffffffffffffffffffffffffffffffffff1673ffffffffffffffffffffffffffffffffffffffff16815260200190815260200160002060000160020190805460018160011615610100020316600290046124fa92919061427c565b5084600160008973ffffffffffffffffffffffffffffffffffffffff1673ffffffffffffffffffffffffffffffffffffffff1681526020019081526020016000206003016000019080519060200190612554929190614303565b5082600160008973ffffffffffffffffffffffffffffffffffffffff1673ffffffffffffffffffffffffffffffffffffffff16815260200190815260200160002060030160010190805190602001906125ae929190614303565b5083600160008973ffffffffffffffffffffffffffffffffffffffff1673ffffffffffffffffffffffffffffffffffffffff1681526020019081526020016000206003016002019080519060200190612608929190614303565b5081600160008973ffffffffffffffffffffffffffffffffffffffff1673ffffffffffffffffffffffffffffffffffffffff1681526020019081526020016000206003016003019080519060200190612662929190614303565b507f1635bde2837c5c8ba904d0156f627cd5a64a5819bfbd1f60d0ced42ee63fd0bc8160000160009054906101000a900473ffffffffffffffffffffffffffffffffffffffff16826001018360020188888888604051808873ffffffffffffffffffffffffffffffffffffffff1673ffffffffffffffffffffffffffffffffffffffff16815260200180602001806020018060200180602001806020018060200187810387528d8181546001816001161561010002031660029004815260200191508054600181600116156101000203166002900480156127845780601f1061275957610100808354040283529160200191612784565b820191906000526020600020905b81548152906001019060200180831161276757829003601f168201915b505087810386528c8181546001816001161561010002031660029004815260200191508054600181600116156101000203166002900480156128075780601f106127dc57610100808354040283529160200191612807565b820191906000526020600020905b8154815290600101906020018083116127ea57829003601f168201915b505087810385528b818151815260200191508051906020019080838360005b83811015612841578082015181840152602081019050612826565b50505050905090810190601f16801561286e5780820380516001836020036101000a031916815260200191505b5087810384528a818151815260200191508051906020019080838360005b838110156128a757808201518184015260208101905061288c565b50505050905090810190601f1680156128d45780820380516001836020036101000a031916815260200191505b50878103835289818151815260200191508051906020019080838360005b8381101561290d5780820151818401526020810190506128f2565b50505050905090810190601f16801561293a5780820380516001836020036101000a031916815260200191505b50878103825288818151815260200191508051906020019080838360005b83811015612973578082015181840152602081019050612958565b50505050905090810190601f1680156129a05780820380516001836020036101000a031916815260200191505b509d505050505050505050505050505060405180910390a150505050505050565b6000600160008473ffffffffffffffffffffffffffffffffffffffff1673ffffffffffffffffffffffffffffffffffffffff16815260200190815260200160002060030190506000600160008573ffffffffffffffffffffffffffffffffffffffff1673ffffffffffffffffffffffffffffffffffffffff16815260200190815260200160002060000190508060000160009054906101000a900473ffffffffffffffffffffffffffffffffffffffff16600560008673ffffffffffffffffffffffffffffffffffffffff1673ffffffffffffffffffffffffffffffffffffffff16815260200190815260200160002060000160000160000160006101000a81548173ffffffffffffffffffffffffffffffffffffffff021916908373ffffffffffffffffffffffffffffffffffffffff16021790555080600101600560008673ffffffffffffffffffffffffffffffffffffffff1673ffffffffffffffffffffffffffffffffffffffff1681526020019081526020016000206000016000016001019080546001816001161561010002031660029004612b6392919061427c565b5080600201600560008673ffffffffffffffffffffffffffffffffffffffff1673ffffffffffffffffffffffffffffffffffffffff1681526020019081526020016000206000016000016002019080546001816001161561010002031660029004612bcf92919061427c565b5081600001600560008673ffffffffffffffffffffffffffffffffffffffff1673ffffffffffffffffffffffffffffffffffffffff1681526020019081526020016000206000016003016000019080546001816001161561010002031660029004612c3b92919061427c565b5081600101600560008673ffffffffffffffffffffffffffffffffffffffff1673ffffffffffffffffffffffffffffffffffffffff1681526020019081526020016000206000016003016001019080546001816001161561010002031660029004612ca792919061427c565b5081600201600560008673ffffffffffffffffffffffffffffffffffffffff1673ffffffffffffffffffffffffffffffffffffffff1681526020019081526020016000206000016003016002019080546001816001161561010002031660029004612d1392919061427c565b5081600301600560008673ffffffffffffffffffffffffffffffffffffffff1673ffffffffffffffffffffffffffffffffffffffff1681526020019081526020016000206000016003016003019080546001816001161561010002031660029004612d7f92919061427c565b5082600560008673ffffffffffffffffffffffffffffffffffffffff1673ffffffffffffffffffffffffffffffffffffffff1681526020019081526020016000206007019080519060200190612dd6929190614303565b507fa61568fc3021fcee50a94fa14d6b5d3f14054c0e8d9b537a1f7ac9d7f3a89da68160000160009054906101000a900473ffffffffffffffffffffffffffffffffffffffff168260010183600201856000018660020187600101886003018a604051808973ffffffffffffffffffffffffffffffffffffffff1673ffffffffffffffffffffffffffffffffffffffff1681526020018060200180602001806020018060200180602001806020018060200188810388528f818154600181600116156101000203166002900481526020019150805460018160011615610100020316600290048015612f095780601f10612ede57610100808354040283529160200191612f09565b820191906000526020600020905b815481529060010190602001808311612eec57829003601f168201915b505088810387528e818154600181600116156101000203166002900481526020019150805460018160011615610100020316600290048015612f8c5780601f10612f6157610100808354040283529160200191612f8c565b820191906000526020600020905b815481529060010190602001808311612f6f57829003601f168201915b505088810386528d81815460018160011615610100020316600290048152602001915080546001816001161561010002031660029004801561300f5780601f10612fe45761010080835404028352916020019161300f565b820191906000526020600020905b815481529060010190602001808311612ff257829003601f168201915b505088810385528c8181546001816001161561010002031660029004815260200191508054600181600116156101000203166002900480156130925780601f1061306757610100808354040283529160200191613092565b820191906000526020600020905b81548152906001019060200180831161307557829003601f168201915b505088810384528b8181546001816001161561010002031660029004815260200191508054600181600116156101000203166002900480156131155780601f106130ea57610100808354040283529160200191613115565b820191906000526020600020905b8154815290600101906020018083116130f857829003601f168201915b505088810383528a8181546001816001161561010002031660029004815260200191508054600181600116156101000203166002900480156131985780601f1061316d57610100808354040283529160200191613198565b820191906000526020600020905b81548152906001019060200180831161317b57829003601f168201915b5050888103825289818151815260200191508051906020019080838360005b838110156131d25780820151818401526020810190506131b7565b50505050905090810190601f1680156131ff5780820380516001836020036101000a031916815260200191505b509f5050505050505050505050505050505060405180910390a150505050565b606080606080600560008673ffffffffffffffffffffffffffffffffffffffff1673ffffffffffffffffffffffffffffffffffffffff168152602001908152602001600020600001600301600001600560008773ffffffffffffffffffffffffffffffffffffffff1673ffffffffffffffffffffffffffffffffffffffff168152602001908152602001600020600001600301600101600560008873ffffffffffffffffffffffffffffffffffffffff1673ffffffffffffffffffffffffffffffffffffffff168152602001908152602001600020600001600301600201600560008973ffffffffffffffffffffffffffffffffffffffff1673ffffffffffffffffffffffffffffffffffffffff168152602001908152602001600020600001600301600301838054600181600116156101000203166002900480601f0160208091040260200160405190810160405280929190818152602001828054600181600116156101000203166002900480156133da5780601f106133af576101008083540402835291602001916133da565b820191906000526020600020905b8154815290600101906020018083116133bd57829003601f168201915b50505050509350828054600181600116156101000203166002900480601f0160208091040260200160405190810160405280929190818152602001828054600181600116156101000203166002900480156134765780601f1061344b57610100808354040283529160200191613476565b820191906000526020600020905b81548152906001019060200180831161345957829003601f168201915b50505050509250818054600181600116156101000203166002900480601f0160208091040260200160405190810160405280929190818152602001828054600181600116156101000203166002900480156135125780601f106134e757610100808354040283529160200191613512565b820191906000526020600020905b8154815290600101906020018083116134f557829003601f168201915b50505050509150808054600181600116156101000203166002900480601f0160208091040260200160405190810160405280929190818152602001828054600181600116156101000203166002900480156135ae5780601f10613583576101008083540402835291602001916135ae565b820191906000526020600020905b81548152906001019060200180831161359157829003601f168201915b5050505050905093509350935093509193509193565b60006060806060846040516020018082805190602001908083835b60208310151561360457805182526020820191506020810190506020830392506135df565b6001836020036101000a03801982511681845116808217855250505050505090500191505060405160208183030381529060405280519060200120600460008873ffffffffffffffffffffffffffffffffffffffff1673ffffffffffffffffffffffffffffffffffffffff16815260200190815260200160002060000160030160000160405160200180828054600181600116156101000203166002900480156136e55780601f106136c35761010080835404028352918201916136e5565b820191906000526020600020905b8154815290600101906020018083116136d1575b5050915050604051602081830303815290604052805190602001201415613b2b5760405160200180807f5245414459000000000000000000000000000000000000000000000000000000815250600501905060405160208183030381529060405280519060200120600460008873ffffffffffffffffffffffffffffffffffffffff1673ffffffffffffffffffffffffffffffffffffffff16815260200190815260200160002060070160405160200180828054600181600116156101000203166002900480156137ed5780601f106137cb5761010080835404028352918201916137ed565b820191906000526020600020905b8154815290600101906020018083116137d9575b5050915050604051602081830303815290604052805190602001201415613b2a57600460008773ffffffffffffffffffffffffffffffffffffffff1673ffffffffffffffffffffffffffffffffffffffff16815260200190815260200160002060000160000160000160009054906101000a900473ffffffffffffffffffffffffffffffffffffffff16600460008873ffffffffffffffffffffffffffffffffffffffff1673ffffffffffffffffffffffffffffffffffffffff168152602001908152602001600020600001600001600101600460008973ffffffffffffffffffffffffffffffffffffffff1673ffffffffffffffffffffffffffffffffffffffff168152602001908152602001600020600001600001600201600460008a73ffffffffffffffffffffffffffffffffffffffff1673ffffffffffffffffffffffffffffffffffffffff168152602001908152602001600020600701828054600181600116156101000203166002900480601f0160208091040260200160405190810160405280929190818152602001828054600181600116156101000203166002900480156139de5780601f106139b3576101008083540402835291602001916139de565b820191906000526020600020905b8154815290600101906020018083116139c157829003601f168201915b50505050509250818054600181600116156101000203166002900480601f016020809104026020016040519081016040528092919081815260200182805460018160011615610100020316600290048015613a7a5780601f10613a4f57610100808354040283529160200191613a7a565b820191906000526020600020905b815481529060010190602001808311613a5d57829003601f168201915b50505050509150808054600181600116156101000203166002900480601f016020809104026020016040519081016040528092919081815260200182805460018160011615610100020316600290048015613b165780601f10613aeb57610100808354040283529160200191613b16565b820191906000526020600020905b815481529060010190602001808311613af957829003601f168201915b505050505090509350935093509350613b2c565b5b5b92959194509250565b60006060806000808573ffffffffffffffffffffffffffffffffffffffff1673ffffffffffffffffffffffffffffffffffffffff16815260200190815260200160002060000160009054906101000a900473ffffffffffffffffffffffffffffffffffffffff166000808673ffffffffffffffffffffffffffffffffffffffff1673ffffffffffffffffffffffffffffffffffffffff1681526020019081526020016000206001016000808773ffffffffffffffffffffffffffffffffffffffff1673ffffffffffffffffffffffffffffffffffffffff168152602001908152602001600020600201818054600181600116156101000203166002900480601f016020809104026020016040519081016040528092919081815260200182805460018160011615610100020316600290048015613cb35780601f10613c8857610100808354040283529160200191613cb3565b820191906000526020600020905b815481529060010190602001808311613c9657829003601f168201915b50505050509150808054600181600116156101000203166002900480601f016020809104026020016040519081016040528092919081815260200182805460018160011615610100020316600290048015613d4f5780601f10613d2457610100808354040283529160200191613d4f565b820191906000526020600020905b815481529060010190602001808311613d3257829003601f168201915b505050505090509250925092509193909250565b606080600660008473ffffffffffffffffffffffffffffffffffffffff1673ffffffffffffffffffffffffffffffffffffffff168152602001908152602001600020600401600660008573ffffffffffffffffffffffffffffffffffffffff1673ffffffffffffffffffffffffffffffffffffffff168152602001908152602001600020600301818054600181600116156101000203166002900480601f016020809104026020016040519081016040528092919081815260200182805460018160011615610100020316600290048015613e7f5780601f10613e5457610100808354040283529160200191613e7f565b820191906000526020600020905b815481529060010190602001808311613e6257829003601f168201915b50505050509150808054600181600116156101000203166002900480601f016020809104026020016040519081016040528092919081815260200182805460018160011615610100020316600290048015613f1b5780601f10613ef057610100808354040283529160200191613f1b565b820191906000526020600020905b815481529060010190602001808311613efe57829003601f168201915b5050505050905091509150915091565b6060604051908101604052808473ffffffffffffffffffffffffffffffffffffffff168152602001838152602001828152506000808573ffffffffffffffffffffffffffffffffffffffff1673ffffffffffffffffffffffffffffffffffffffff16815260200190815260200160002060008201518160000160006101000a81548173ffffffffffffffffffffffffffffffffffffffff021916908373ffffffffffffffffffffffffffffffffffffffff1602179055506020820151816001019080519060200190613ffe929190614383565b50604082015181600201908051906020019061401b929190614383565b509050507f2d1da36c6be79e63f2418f04d88c73785748c549e72615c5150075b8f0c9fa2f6000808573ffffffffffffffffffffffffffffffffffffffff1673ffffffffffffffffffffffffffffffffffffffff16815260200190815260200160002060000160009054906101000a900473ffffffffffffffffffffffffffffffffffffffff166000808673ffffffffffffffffffffffffffffffffffffffff1673ffffffffffffffffffffffffffffffffffffffff1681526020019081526020016000206001016000808773ffffffffffffffffffffffffffffffffffffffff1673ffffffffffffffffffffffffffffffffffffffff168152602001908152602001600020600201604051808473ffffffffffffffffffffffffffffffffffffffff1673ffffffffffffffffffffffffffffffffffffffff16815260200180602001806020018381038352858181546001816001161561010002031660029004815260200191508054600181600116156101000203166002900480156141e35780601f106141b8576101008083540402835291602001916141e3565b820191906000526020600020905b8154815290600101906020018083116141c657829003601f168201915b50508381038252848181546001816001161561010002031660029004815260200191508054600181600116156101000203166002900480156142665780601f1061423b57610100808354040283529160200191614266565b820191906000526020600020905b81548152906001019060200180831161424957829003601f168201915b50509550505050505060405180910390a1505050565b828054600181600116156101000203166002900490600052602060002090601f016020900481019282601f106142b557805485556142f2565b828001600101855582156142f257600052602060002091601f016020900482015b828111156142f15782548255916001019190600101906142d6565b5b5090506142ff9190614403565b5090565b828054600181600116156101000203166002900490600052602060002090601f016020900481019282601f1061434457805160ff1916838001178555614372565b82800160010185558215614372579182015b82811115614371578251825591602001919060010190614356565b5b50905061437f9190614403565b5090565b828054600181600116156101000203166002900490600052602060002090601f016020900481019282601f106143c457805160ff19168380011785556143f2565b828001600101855582156143f2579182015b828111156143f15782518255916020019190600101906143d6565b5b5090506143ff9190614403565b5090565b61442591905b80821115614421576000816000905550600101614409565b5090565b9056fea165627a7a72305820c02cdf28df9d8456e83a471f89debbc469ab275afc78ea2c28824eb8ce66ba240029",
  "source": "pragma solidity >=0.4.19 <0.6.0;\n\nimport \"./SGB.sol\";\n\ncontract SCVehicle {\n\tstruct Vehicles {\n\t\taddress PK;\n\t\tstring loc;\n\t\tstring status;\n\t}\n\n\tstruct Bins {\n\t\tstring ID;\n\t\tstring loc;\n\t\tstring status;\n\t\tstring seg;\n\t}\n\n\tstruct Notification {\n\t\tVehicles vehicle;\n\t\tBins bin;\n\t}\n\n\tstruct Response {\n\t\tNotification notify;\n\t\tstring resp;\n\t}\n\n\tstruct RouteCollect {\n\t\tNotification notify;\n\t\tstring route;\n\t}\n\n\tstruct RouteDispose {\n\t\tVehicles vehicle;\n\t\tstring disposalArea;\n\t\tstring route;\n\n\t}\n\n\tevent SGBNotificationEvent(address PK, string vehicleLoc, string vehicleStatus, string binID, string binStatus, string binLoc, string binSeg);\n\tevent ResponseEvent(address PK, string vehicleLoc, string vehicleStatus, string binID, string binStatus, string binLoc, string binSeg, string resp);\n\tevent OptimalRouteCollectEvent(address PK, string vehicleLoc, string vehicleStatus, string binID, string binStatus, string binLoc, string binSeg, string route);\n\tevent OptimalRouteDisposeEvent(address PK, string vehicleLoc, string vehicleStatus, string disposalArea, string route);\n\tevent VehicleStatusEvent(address PK, string vehicleLoc, string vehicleStatus);\n\tevent RegisterVehicleEvent(address PK, string vehicleLoc, string vehicleStatus);\n\n\tmapping (address => Vehicles) vehicle;\n\tmapping (address => Notification) sgbNotification;\n\tmapping (address => string) vehicleSpace;\n\tmapping (address => string) vehicleWeight;\n\tmapping (address => Response) response;\n\tmapping (address => RouteCollect) routeCollect;\n\tmapping (address => RouteDispose) routeDispose;\n\n\tstring vehicleStatusFull = \"FULL\";\n\tstring vehicleStatusAvailable = \"AVAILABLE\";\n\tstring resp = \"READY\";\n\n\tuint256 constant vehicleThresholdWeight = 50;\n\tuint256 constant vehicleThresholdSpace  = 10;\n\n\tSGB sgb;\n    constructor(SGB _sgb) public {\t\n    \tsgb = _sgb;\n    }\n\n    function registerVehicle(address _vehiclePK, string memory _vehicleLoc, string memory _vehicleStatus) public {\n    \tvehicle[_vehiclePK] = Vehicles(_vehiclePK, _vehicleLoc, _vehicleStatus);\n    \temit RegisterVehicleEvent(vehicle[_vehiclePK].PK, vehicle[_vehiclePK].loc, vehicle[_vehiclePK].status);\n    }\n\n    function SGBNotification(address _vehiclePK, string memory _binID) public {\n    \t(string memory ID, string memory status, string memory loc, string memory seg) = sgb.getSGBStatus(_binID);\n    \tVehicles storage v = vehicle[_vehiclePK];\n\n    \tsgbNotification[_vehiclePK].vehicle.PK = v.PK;\n    \tsgbNotification[_vehiclePK].vehicle.loc = v.loc;\n    \tsgbNotification[_vehiclePK].vehicle.status = v.status;\n\n    \tsgbNotification[_vehiclePK].bin.ID = ID;\n    \tsgbNotification[_vehiclePK].bin.loc = loc;\n    \tsgbNotification[_vehiclePK].bin.status = status;\n    \tsgbNotification[_vehiclePK].bin.seg = seg;\n\n    \temit SGBNotificationEvent(v.PK, v.loc, v.status, ID, status, loc, seg);\n    }\n\n    function vehicleStatus(address _vehiclePK, uint256 _vehicleSpace, uint256 _vehicleWeight) public  {\t\t\t\t\n\t\tif (_vehicleSpace <= vehicleThresholdSpace || _vehicleWeight >= vehicleThresholdWeight )\n\t\t\tvehicle[_vehiclePK].status = vehicleStatusFull;\n\t\telse\n\t\t\tvehicle[_vehiclePK].status = vehicleStatusAvailable;\n\n\t\temit VehicleStatusEvent(vehicle[_vehiclePK].PK, vehicle[_vehiclePK].loc, vehicle[_vehiclePK].status);\n    }\n\n    function getVehicleStatus( address _vehiclePK ) public view returns(address, string memory, string memory) {\n    \t\n    \treturn (vehicle[_vehiclePK].PK, vehicle[_vehiclePK].loc, vehicle[_vehiclePK].status);\t\n    }\n    \n    function requestResponse(address _vehiclePK) public {\n\t\tBins storage b = sgbNotification[_vehiclePK].bin;\n\t\tVehicles storage v = sgbNotification[_vehiclePK].vehicle;\n\t\tif (keccak256(abi.encodePacked(vehicle[_vehiclePK].status )) == keccak256(abi.encodePacked(vehicleStatusAvailable))){\n\t\t\t\n\t\t\tresponse[_vehiclePK].notify.vehicle.PK=v.PK;\n\t\t\tresponse[_vehiclePK].notify.vehicle.loc=v.loc;\n\t\t\tresponse[_vehiclePK].notify.vehicle.status=v.status;\n\n\t\t\tresponse[_vehiclePK].notify.bin.ID=b.ID;\n\t\t\tresponse[_vehiclePK].notify.bin.loc=b.loc;\n\t\t\tresponse[_vehiclePK].notify.bin.status=b.status;\n\t\t\tresponse[_vehiclePK].notify.bin.seg=b.seg;\n\n\t\t\tresponse[_vehiclePK].resp=resp;\n\n\t\t\temit ResponseEvent(vehicle[_vehiclePK].PK, vehicle[_vehiclePK].loc, vehicle[_vehiclePK].status, b.ID, b.status, b.loc, b.seg, resp);\t    \t\n\t\t}\n    }\n\n    function getRequestResponse(address _vehiclePK, string memory _binID) public view returns(address, string memory, string memory, string memory) {\n\n\t\tif(keccak256(abi.encodePacked(response[_vehiclePK].notify.bin.ID)) == keccak256(abi.encodePacked(_binID)))\n\t\t\tif(keccak256(abi.encodePacked(response[_vehiclePK].resp)) == keccak256(abi.encodePacked(\"READY\")))\n\t\t\t\treturn (response[_vehiclePK].notify.vehicle.PK, response[_vehiclePK].notify.vehicle.loc, response[_vehiclePK].notify.vehicle.status, response[_vehiclePK].resp);\n    }\n\n    function optimalRouteCollect (address _vehiclePK, string memory _route) public {\n    \t//(string memory _binID, string memory _binStatus, string memory _binLoc, string memory _binSeg) = sgb.getSGBStatus(_binID);\n \t\tBins storage b = sgbNotification[_vehiclePK].bin;\n \t\tVehicles storage v = sgbNotification[_vehiclePK].vehicle;\n\n\t\trouteCollect[_vehiclePK].notify.vehicle.PK=v.PK;\n\t\trouteCollect[_vehiclePK].notify.vehicle.loc=v.loc;\n\t\trouteCollect[_vehiclePK].notify.vehicle.status=v.status;\n\n\t\trouteCollect[_vehiclePK].notify.bin.ID=b.ID;\n\t\trouteCollect[_vehiclePK].notify.bin.loc=b.loc;\n\t\trouteCollect[_vehiclePK].notify.bin.status=b.status;\n\t\trouteCollect[_vehiclePK].notify.bin.seg=b.seg;\n\n\t\trouteCollect[_vehiclePK].route=_route;\n\n\t\temit OptimalRouteCollectEvent(v.PK, v.loc, v.status, b.ID, b.status, b.loc, b.seg, _route);\n    }\n\n    function getOptimalRouteCollect (address _vehiclePK) public view returns(string memory, string memory, string memory, string memory) {\n\t\treturn(routeCollect[_vehiclePK].notify.bin.ID, routeCollect[_vehiclePK].notify.bin.loc, routeCollect[_vehiclePK].notify.bin.status, routeCollect[_vehiclePK].notify.bin.seg); \t\n    }\n\n    function optimalRouteDispose(address _vehiclePK, string memory _disposalArea , string memory _route) public {\n    \trouteDispose[_vehiclePK].vehicle.PK = vehicle[_vehiclePK].PK;\n    \trouteDispose[_vehiclePK].vehicle.loc = vehicle[_vehiclePK].loc;\n    \trouteDispose[_vehiclePK].vehicle.status = vehicle[_vehiclePK].status;\n    \trouteDispose[_vehiclePK].route = _route;\n\n    \temit OptimalRouteDisposeEvent(vehicle[_vehiclePK].PK, vehicle[_vehiclePK].loc, vehicle[_vehiclePK].status, _disposalArea, _route);\n    }\n\n    function getOptimalRouteDispose(address _vehiclePK) public view returns (string memory, string memory) {\n    \treturn(routeDispose[_vehiclePK].route, routeDispose[_vehiclePK].disposalArea); \t\n    }\n\n}\n",
  "sourcePath": "/root/SGB/contracts/SCVehicle.sol",
  "compiler": {
    "name": "solc",
    "version": "0.5.0+commit.1d4f565a.Emscripten.clang"
  },
  "schemaVersion": "3.0.11",
  "updatedAt": "2019-08-07T11:04:12.117Z",
  "devdoc": {
    "methods": {}
  },
  "userdoc": {
    "methods": {}
  }
}