{
  "contractName": "SGB",
  "abi": [
    {
      "constant": true,
      "inputs": [],
      "name": "binHeight",
      "outputs": [
        {
          "name": "",
          "type": "uint256"
        }
      ],
      "payable": false,
      "stateMutability": "view",
      "type": "function"
    },
    {
      "constant": true,
      "inputs": [],
      "name": "binThresholdDistance",
      "outputs": [
        {
          "name": "",
          "type": "uint256"
        }
      ],
      "payable": false,
      "stateMutability": "view",
      "type": "function"
    },
    {
      "inputs": [],
      "payable": false,
      "stateMutability": "nonpayable",
      "type": "constructor"
    },
    {
      "anonymous": false,
      "inputs": [
        {
          "indexed": false,
          "name": "ID",
          "type": "string"
        },
        {
          "indexed": false,
          "name": "status",
          "type": "string"
        },
        {
          "indexed": false,
          "name": "loc",
          "type": "string"
        },
        {
          "indexed": false,
          "name": "seg",
          "type": "string"
        }
      ],
      "name": "SGBUpdate",
      "type": "event"
    },
    {
      "anonymous": false,
      "inputs": [
        {
          "indexed": false,
          "name": "binID",
          "type": "string"
        },
        {
          "indexed": false,
          "name": "binStatus",
          "type": "string"
        },
        {
          "indexed": false,
          "name": "binLoc",
          "type": "string"
        },
        {
          "indexed": false,
          "name": "binSeg",
          "type": "string"
        }
      ],
      "name": "RegisterSGB",
      "type": "event"
    },
    {
      "constant": false,
      "inputs": [
        {
          "name": "_binID",
          "type": "string"
        },
        {
          "name": "_binLoc",
          "type": "string"
        }
      ],
      "name": "registerSGB",
      "outputs": [],
      "payable": false,
      "stateMutability": "nonpayable",
      "type": "function"
    },
    {
      "constant": false,
      "inputs": [
        {
          "name": "_binID",
          "type": "string"
        },
        {
          "name": "_binSeg",
          "type": "string"
        },
        {
          "name": "_binDistance",
          "type": "uint256"
        },
        {
          "name": "_binWasteHeight",
          "type": "uint256"
        }
      ],
      "name": "SGBStatus",
      "outputs": [],
      "payable": false,
      "stateMutability": "nonpayable",
      "type": "function"
    },
    {
      "constant": true,
      "inputs": [
        {
          "name": "ID",
          "type": "string"
        }
      ],
      "name": "getSGBStatus",
      "outputs": [
        {
          "name": "",
          "type": "string"
        },
        {
          "name": "",
          "type": "string"
        },
        {
          "name": "",
          "type": "string"
        },
        {
          "name": "",
          "type": "string"
        }
      ],
      "payable": false,
      "stateMutability": "view",
      "type": "function"
    }
  ],
  "bytecode": "0x60806040526040805190810160405280600481526020017f46554c4c000000000000000000000000000000000000000000000000000000008152506000908051906020019062000051929190620000b4565b506040805190810160405280600581526020017f454d505459000000000000000000000000000000000000000000000000000000815250600190805190602001906200009f929190620000b4565b50348015620000ad57600080fd5b5062000163565b828054600181600116156101000203166002900490600052602060002090601f016020900481019282601f10620000f757805160ff191683800117855562000128565b8280016001018555821562000128579182015b82811115620001275782518255916020019190600101906200010a565b5b5090506200013791906200013b565b5090565b6200016091905b808211156200015c57600081600090555060010162000142565b5090565b90565b61188e80620001736000396000f3fe60806040526004361061006d576000357c0100000000000000000000000000000000000000000000000000000000900463ffffffff1680636a6794ba14610072578063809a84b2146102f7578063c06ca4791461046a578063caeeffeb14610495578063e556d146146105f4575b600080fd5b34801561007e57600080fd5b506101386004803603602081101561009557600080fd5b81019080803590602001906401000000008111156100b257600080fd5b8201836020820111156100c457600080fd5b803590602001918460018302840111640100000000831117156100e657600080fd5b91908080601f016020809104026020016040519081016040528093929190818152602001838380828437600081840152601f19601f82011690508083019250505050505050919291929050505061061f565b6040518080602001806020018060200180602001858103855289818151815260200191508051906020019080838360005b83811015610184578082015181840152602081019050610169565b50505050905090810190601f1680156101b15780820380516001836020036101000a031916815260200191505b50858103845288818151815260200191508051906020019080838360005b838110156101ea5780820151818401526020810190506101cf565b50505050905090810190601f1680156102175780820380516001836020036101000a031916815260200191505b50858103835287818151815260200191508051906020019080838360005b83811015610250578082015181840152602081019050610235565b50505050905090810190601f16801561027d5780820380516001836020036101000a031916815260200191505b50858103825286818151815260200191508051906020019080838360005b838110156102b657808201518184015260208101905061029b565b50505050905090810190601f1680156102e35780820380516001836020036101000a031916815260200191505b509850505050505050505060405180910390f35b34801561030357600080fd5b506104686004803603608081101561031a57600080fd5b810190808035906020019064010000000081111561033757600080fd5b82018360208201111561034957600080fd5b8035906020019184600183028401116401000000008311171561036b57600080fd5b91908080601f016020809104026020016040519081016040528093929190818152602001838380828437600081840152601f19601f820116905080830192505050505050509192919290803590602001906401000000008111156103ce57600080fd5b8201836020820111156103e057600080fd5b8035906020019184600183028401116401000000008311171561040257600080fd5b91908080601f016020809104026020016040519081016040528093929190818152602001838380828437600081840152601f19601f8201169050808301925050505050505091929192908035906020019092919080359060200190929190505050610924565b005b34801561047657600080fd5b5061047f611308565b6040518082815260200191505060405180910390f35b3480156104a157600080fd5b506105f2600480360360408110156104b857600080fd5b81019080803590602001906401000000008111156104d557600080fd5b8201836020820111156104e757600080fd5b8035906020019184600183028401116401000000008311171561050957600080fd5b91908080601f016020809104026020016040519081016040528093929190818152602001838380828437600081840152601f19601f8201169050808301925050505050505091929192908035906020019064010000000081111561056c57600080fd5b82018360208201111561057e57600080fd5b803590602001918460018302840111640100000000831117156105a057600080fd5b91908080601f016020809104026020016040519081016040528093929190818152602001838380828437600081840152601f19601f82011690508083019250505050505050919291929050505061130d565b005b34801561060057600080fd5b506106096116b1565b6040518082815260200191505060405180910390f35b60608060608060006002866040518082805190602001908083835b60208310151561065f578051825260208201915060208101905060208303925061063a565b6001836020036101000a0380198251168184511680821785525050505050509050019150509081526020016040518091039020905080600001816001018260020183600301838054600181600116156101000203166002900480601f0160208091040260200160405190810160405280929190818152602001828054600181600116156101000203166002900480156107395780601f1061070e57610100808354040283529160200191610739565b820191906000526020600020905b81548152906001019060200180831161071c57829003601f168201915b50505050509350828054600181600116156101000203166002900480601f0160208091040260200160405190810160405280929190818152602001828054600181600116156101000203166002900480156107d55780601f106107aa576101008083540402835291602001916107d5565b820191906000526020600020905b8154815290600101906020018083116107b857829003601f168201915b50505050509250818054600181600116156101000203166002900480601f0160208091040260200160405190810160405280929190818152602001828054600181600116156101000203166002900480156108715780601f1061084657610100808354040283529160200191610871565b820191906000526020600020905b81548152906001019060200180831161085457829003601f168201915b50505050509150808054600181600116156101000203166002900480601f01602080910402602001604051908101604052809291908181526020018280546001816001161561010002031660029004801561090d5780601f106108e25761010080835404028352916020019161090d565b820191906000526020600020905b8154815290600101906020018083116108f057829003601f168201915b505050505090509450945094509450509193509193565b826002856040518082805190602001908083835b60208310151561095d5780518252602082019150602081019050602083039250610938565b6001836020036101000a038019825116818451168082178552505050505050905001915050908152602001604051809103902060030190805190602001906109a69291906116b6565b50600282111515610e515760006002856040518082805190602001908083835b6020831015156109eb57805182526020820191506020810190506020830392506109c6565b6001836020036101000a03801982511681845116808217855250505050505090500191505090815260200160405180910390206001019080546001816001161561010002031660029004610a40929190611736565b507fbb1051dba231175657f885049f7d6e2b2bebb5e488fcf3bf519e5333f2b0e7aa6002856040518082805190602001908083835b602083101515610a9a5780518252602082019150602081019050602083039250610a75565b6001836020036101000a03801982511681845116808217855250505050505090500191505090815260200160405180910390206000016002866040518082805190602001908083835b602083101515610b085780518252602082019150602081019050602083039250610ae3565b6001836020036101000a03801982511681845116808217855250505050505090500191505090815260200160405180910390206001016002876040518082805190602001908083835b602083101515610b765780518252602082019150602081019050602083039250610b51565b6001836020036101000a03801982511681845116808217855250505050505090500191505090815260200160405180910390206002016002886040518082805190602001908083835b602083101515610be45780518252602082019150602081019050602083039250610bbf565b6001836020036101000a03801982511681845116808217855250505050505090500191505090815260200160405180910390206003016040518080602001806020018060200180602001858103855289818154600181600116156101000203166002900481526020019150805460018160011615610100020316600290048015610caf5780601f10610c8457610100808354040283529160200191610caf565b820191906000526020600020905b815481529060010190602001808311610c9257829003601f168201915b5050858103845288818154600181600116156101000203166002900481526020019150805460018160011615610100020316600290048015610d325780601f10610d0757610100808354040283529160200191610d32565b820191906000526020600020905b815481529060010190602001808311610d1557829003601f168201915b5050858103835287818154600181600116156101000203166002900481526020019150805460018160011615610100020316600290048015610db55780601f10610d8a57610100808354040283529160200191610db5565b820191906000526020600020905b815481529060010190602001808311610d9857829003601f168201915b5050858103825286818154600181600116156101000203166002900481526020019150805460018160011615610100020316600290048015610e385780601f10610e0d57610100808354040283529160200191610e38565b820191906000526020600020905b815481529060010190602001808311610e1b57829003601f168201915b50509850505050505050505060405180910390a1611302565b600a821480610e605750600081145b156113015760016002856040518082805190602001908083835b602083101515610e9f5780518252602082019150602081019050602083039250610e7a565b6001836020036101000a03801982511681845116808217855250505050505090500191505090815260200160405180910390206001019080546001816001161561010002031660029004610ef4929190611736565b507fbb1051dba231175657f885049f7d6e2b2bebb5e488fcf3bf519e5333f2b0e7aa6002856040518082805190602001908083835b602083101515610f4e5780518252602082019150602081019050602083039250610f29565b6001836020036101000a03801982511681845116808217855250505050505090500191505090815260200160405180910390206000016002866040518082805190602001908083835b602083101515610fbc5780518252602082019150602081019050602083039250610f97565b6001836020036101000a03801982511681845116808217855250505050505090500191505090815260200160405180910390206001016002876040518082805190602001908083835b60208310151561102a5780518252602082019150602081019050602083039250611005565b6001836020036101000a03801982511681845116808217855250505050505090500191505090815260200160405180910390206002016002886040518082805190602001908083835b6020831015156110985780518252602082019150602081019050602083039250611073565b6001836020036101000a038019825116818451168082178552505050505050905001915050908152602001604051809103902060030160405180806020018060200180602001806020018581038552898181546001816001161561010002031660029004815260200191508054600181600116156101000203166002900480156111635780601f1061113857610100808354040283529160200191611163565b820191906000526020600020905b81548152906001019060200180831161114657829003601f168201915b50508581038452888181546001816001161561010002031660029004815260200191508054600181600116156101000203166002900480156111e65780601f106111bb576101008083540402835291602001916111e6565b820191906000526020600020905b8154815290600101906020018083116111c957829003601f168201915b50508581038352878181546001816001161561010002031660029004815260200191508054600181600116156101000203166002900480156112695780601f1061123e57610100808354040283529160200191611269565b820191906000526020600020905b81548152906001019060200180831161124c57829003601f168201915b50508581038252868181546001816001161561010002031660029004815260200191508054600181600116156101000203166002900480156112ec5780601f106112c1576101008083540402835291602001916112ec565b820191906000526020600020905b8154815290600101906020018083116112cf57829003601f168201915b50509850505050505050505060405180910390a15b5b50505050565b600a81565b60806040519081016040528083815260200160018054600181600116156101000203166002900480601f0160208091040260200160405190810160405280929190818152602001828054600181600116156101000203166002900480156113b55780601f1061138a576101008083540402835291602001916113b5565b820191906000526020600020905b81548152906001019060200180831161139857829003601f168201915b505050505081526020018281526020016040805190810160405280600581526020017f46414c53450000000000000000000000000000000000000000000000000000008152508152506002836040518082805190602001908083835b6020831015156114365780518252602082019150602081019050602083039250611411565b6001836020036101000a038019825116818451168082178552505050505050905001915050908152602001604051809103902060008201518160000190805190602001906114859291906117bd565b5060208201518160010190805190602001906114a29291906117bd565b5060408201518160020190805190602001906114bf9291906117bd565b5060608201518160030190805190602001906114dc9291906117bd565b509050507f723ab47dd7719c34030df2336940fbce4ef67a924a901325843f0d56a1873822826001836040518080602001806020018060200180602001858103855288818151815260200191508051906020019080838360005b83811015611551578082015181840152602081019050611536565b50505050905090810190601f16801561157e5780820380516001836020036101000a031916815260200191505b508581038452878181546001816001161561010002031660029004815260200191508054600181600116156101000203166002900480156116005780601f106115d557610100808354040283529160200191611600565b820191906000526020600020905b8154815290600101906020018083116115e357829003601f168201915b5050858103835286818151815260200191508051906020019080838360005b8381101561163a57808201518184015260208101905061161f565b50505050905090810190601f1680156116675780820380516001836020036101000a031916815260200191505b50858103825260058152602001807f46414c534500000000000000000000000000000000000000000000000000000081525060200197505050505050505060405180910390a15050565b600281565b828054600181600116156101000203166002900490600052602060002090601f016020900481019282601f106116f757805160ff1916838001178555611725565b82800160010185558215611725579182015b82811115611724578251825591602001919060010190611709565b5b509050611732919061183d565b5090565b828054600181600116156101000203166002900490600052602060002090601f016020900481019282601f1061176f57805485556117ac565b828001600101855582156117ac57600052602060002091601f016020900482015b828111156117ab578254825591600101919060010190611790565b5b5090506117b9919061183d565b5090565b828054600181600116156101000203166002900490600052602060002090601f016020900481019282601f106117fe57805160ff191683800117855561182c565b8280016001018555821561182c579182015b8281111561182b578251825591602001919060010190611810565b5b509050611839919061183d565b5090565b61185f91905b8082111561185b576000816000905550600101611843565b5090565b9056fea165627a7a72305820b11a636af429352c3d5815eab98c2569a0e82f01aa3e1cfd577f7ba3fa09feb60029",
  "source": "pragma solidity >=0.4.19 <0.6.0;\n\ncontract SGB {\n\t\n\tstruct Bins {\n\t\tstring ID;\n\t\tstring status;\n\t\tstring loc;\n\t\tstring seg;\n\t}\n\n\tstring binStatusFull = \"FULL\";\n\tstring binStatusEmpty = \"EMPTY\";\n\n\tmapping ( string => Bins)   bins;\n\tmapping ( string => string)  binDistance;\n\tmapping ( string => string)  wasteHeight;\n\n\tuint256 constant public binHeight = 10;\n\tuint256 constant public binThresholdDistance = 2;\n\n\tevent SGBUpdate (\n    \tstring ID,\n\t\tstring status,\n\t\tstring loc,\n\t\tstring seg\n    );\n\t\n\tevent RegisterSGB(string binID, string binStatus, string binLoc, string binSeg);\n\n\tconstructor() public {}\n\n\tfunction registerSGB(string memory _binID, string memory _binLoc) public {\n\t\tbins[_binID] = Bins(_binID, binStatusEmpty, _binLoc, \"FALSE\");\n\t\temit RegisterSGB(_binID, binStatusEmpty, _binLoc, \"FALSE\");\n\t}\n\n\tfunction SGBStatus(string memory _binID, string memory _binSeg, uint256 _binDistance, uint256 _binWasteHeight) public {\n\t\tbins[_binID].seg=_binSeg;\n\t\tif (_binDistance <= binThresholdDistance) {\t\t\t\n\t\t\tbins[_binID].status = binStatusFull;\n\t\t\temit SGBUpdate(bins[_binID].ID, bins[_binID].status, bins[_binID].loc, bins[_binID].seg);\n\t\t}\n\t\telse if (_binDistance == binHeight || _binWasteHeight == 0) {\n\t\t\tbins[_binID].status = binStatusEmpty;\n\t\t\temit SGBUpdate(bins[_binID].ID, bins[_binID].status, bins[_binID].loc, bins[_binID].seg);\n\t\t}\n\t}\n\n\tfunction getSGBStatus(string memory ID) public view returns(string memory, string memory, string memory, string memory) {\n\t\tBins storage bin = bins[ID];\n\t\treturn (bin.ID, bin.status, bin.loc, bin.seg);\n\t}\n\n}",
  "sourcePath": "/root/SGB/contracts/SGB.sol",
  "compiler": {
    "name": "solc",
    "version": "0.5.0+commit.1d4f565a.Emscripten.clang"
  },
  "schemaVersion": "3.0.11",
  "updatedAt": "2019-08-11T20:31:41.093Z",
  "devdoc": {
    "methods": {}
  },
  "userdoc": {
    "methods": {}
  }
}