{
  "contractName": "SGB",
  "abi": [
    {
      "constant": true,
      "inputs": [],
      "name": "binHeight",
      "outputs": [
        {
          "name": "",
          "type": "uint256"
        }
      ],
      "payable": false,
      "stateMutability": "view",
      "type": "function"
    },
    {
      "constant": true,
      "inputs": [],
      "name": "binThresholdDistance",
      "outputs": [
        {
          "name": "",
          "type": "uint256"
        }
      ],
      "payable": false,
      "stateMutability": "view",
      "type": "function"
    },
    {
      "inputs": [],
      "payable": false,
      "stateMutability": "nonpayable",
      "type": "constructor"
    },
    {
      "anonymous": false,
      "inputs": [
        {
          "indexed": false,
          "name": "ID",
          "type": "string"
        },
        {
          "indexed": false,
          "name": "status",
          "type": "string"
        },
        {
          "indexed": false,
          "name": "loc",
          "type": "string"
        },
        {
          "indexed": false,
          "name": "seg",
          "type": "string"
        }
      ],
      "name": "SGBUpdate",
      "type": "event"
    },
    {
      "constant": false,
      "inputs": [
        {
          "name": "_binID",
          "type": "string"
        },
        {
          "name": "_binStatus",
          "type": "string"
        },
        {
          "name": "_binLoc",
          "type": "string"
        },
        {
          "name": "_binSeg",
          "type": "string"
        },
        {
          "name": "_binDistance",
          "type": "uint256"
        },
        {
          "name": "_binWasteHeight",
          "type": "uint256"
        }
      ],
      "name": "setSGBStatus",
      "outputs": [],
      "payable": false,
      "stateMutability": "nonpayable",
      "type": "function"
    },
    {
      "constant": true,
      "inputs": [
        {
          "name": "ID",
          "type": "string"
        }
      ],
      "name": "getSGBStatus",
      "outputs": [
        {
          "name": "",
          "type": "string"
        },
        {
          "name": "",
          "type": "string"
        },
        {
          "name": "",
          "type": "string"
        },
        {
          "name": "",
          "type": "string"
        }
      ],
      "payable": false,
      "stateMutability": "view",
      "type": "function"
    }
  ],
  "bytecode": "0x60806040526040805190810160405280600481526020017f46554c4c000000000000000000000000000000000000000000000000000000008152506000908051906020019062000051929190620000b4565b506040805190810160405280600581526020017f454d505459000000000000000000000000000000000000000000000000000000815250600190805190602001906200009f929190620000b4565b50348015620000ad57600080fd5b5062000163565b828054600181600116156101000203166002900490600052602060002090601f016020900481019282601f10620000f757805160ff191683800117855562000128565b8280016001018555821562000128579182015b82811115620001275782518255916020019190600101906200010a565b5b5090506200013791906200013b565b5090565b6200016091905b808211156200015c57600081600090555060010162000142565b5090565b90565b6110f880620001736000396000f3fe608060405260043610610062576000357c0100000000000000000000000000000000000000000000000000000000900463ffffffff1680636a6794ba14610067578063829be97e146102ec578063c06ca4791461058d578063e556d146146105b8575b600080fd5b34801561007357600080fd5b5061012d6004803603602081101561008a57600080fd5b81019080803590602001906401000000008111156100a757600080fd5b8201836020820111156100b957600080fd5b803590602001918460018302840111640100000000831117156100db57600080fd5b91908080601f016020809104026020016040519081016040528093929190818152602001838380828437600081840152601f19601f8201169050808301925050505050505091929192905050506105e3565b6040518080602001806020018060200180602001858103855289818151815260200191508051906020019080838360005b8381101561017957808201518184015260208101905061015e565b50505050905090810190601f1680156101a65780820380516001836020036101000a031916815260200191505b50858103845288818151815260200191508051906020019080838360005b838110156101df5780820151818401526020810190506101c4565b50505050905090810190601f16801561020c5780820380516001836020036101000a031916815260200191505b50858103835287818151815260200191508051906020019080838360005b8381101561024557808201518184015260208101905061022a565b50505050905090810190601f1680156102725780820380516001836020036101000a031916815260200191505b50858103825286818151815260200191508051906020019080838360005b838110156102ab578082015181840152602081019050610290565b50505050905090810190601f1680156102d85780820380516001836020036101000a031916815260200191505b509850505050505050505060405180910390f35b3480156102f857600080fd5b5061058b600480360360c081101561030f57600080fd5b810190808035906020019064010000000081111561032c57600080fd5b82018360208201111561033e57600080fd5b8035906020019184600183028401116401000000008311171561036057600080fd5b91908080601f016020809104026020016040519081016040528093929190818152602001838380828437600081840152601f19601f820116905080830192505050505050509192919290803590602001906401000000008111156103c357600080fd5b8201836020820111156103d557600080fd5b803590602001918460018302840111640100000000831117156103f757600080fd5b91908080601f016020809104026020016040519081016040528093929190818152602001838380828437600081840152601f19601f8201169050808301925050505050505091929192908035906020019064010000000081111561045a57600080fd5b82018360208201111561046c57600080fd5b8035906020019184600183028401116401000000008311171561048e57600080fd5b91908080601f016020809104026020016040519081016040528093929190818152602001838380828437600081840152601f19601f820116905080830192505050505050509192919290803590602001906401000000008111156104f157600080fd5b82018360208201111561050357600080fd5b8035906020019184600183028401116401000000008311171561052557600080fd5b91908080601f016020809104026020016040519081016040528093929190818152602001838380828437600081840152601f19601f82011690508083019250505050505050919291929080359060200190929190803590602001909291905050506108e8565b005b34801561059957600080fd5b506105a261101d565b6040518082815260200191505060405180910390f35b3480156105c457600080fd5b506105cd611022565b6040518082815260200191505060405180910390f35b60608060608060006002866040518082805190602001908083835b60208310151561062357805182526020820191506020810190506020830392506105fe565b6001836020036101000a0380198251168184511680821785525050505050509050019150509081526020016040518091039020905080600001816001018260020183600301838054600181600116156101000203166002900480601f0160208091040260200160405190810160405280929190818152602001828054600181600116156101000203166002900480156106fd5780601f106106d2576101008083540402835291602001916106fd565b820191906000526020600020905b8154815290600101906020018083116106e057829003601f168201915b50505050509350828054600181600116156101000203166002900480601f0160208091040260200160405190810160405280929190818152602001828054600181600116156101000203166002900480156107995780601f1061076e57610100808354040283529160200191610799565b820191906000526020600020905b81548152906001019060200180831161077c57829003601f168201915b50505050509250818054600181600116156101000203166002900480601f0160208091040260200160405190810160405280929190818152602001828054600181600116156101000203166002900480156108355780601f1061080a57610100808354040283529160200191610835565b820191906000526020600020905b81548152906001019060200180831161081857829003601f168201915b50505050509150808054600181600116156101000203166002900480601f0160208091040260200160405190810160405280929190818152602001828054600181600116156101000203166002900480156108d15780601f106108a6576101008083540402835291602001916108d1565b820191906000526020600020905b8154815290600101906020018083116108b457829003601f168201915b505050505090509450945094509450509193509193565b600282111515610c7b5760008054600181600116156101000203166002900480601f0160208091040260200160405190810160405280929190818152602001828054600181600116156101000203166002900480156109885780601f1061095d57610100808354040283529160200191610988565b820191906000526020600020905b81548152906001019060200180831161096b57829003601f168201915b50505050509450608060405190810160405280878152602001868152602001858152602001848152506002876040518082805190602001908083835b6020831015156109e957805182526020820191506020810190506020830392506109c4565b6001836020036101000a03801982511681845116808217855250505050505090500191505090815260200160405180910390206000820151816000019080519060200190610a38929190611027565b506020820151816001019080519060200190610a55929190611027565b506040820151816002019080519060200190610a72929190611027565b506060820151816003019080519060200190610a8f929190611027565b509050507fbb1051dba231175657f885049f7d6e2b2bebb5e488fcf3bf519e5333f2b0e7aa868686866040518080602001806020018060200180602001858103855289818151815260200191508051906020019080838360005b83811015610b04578082015181840152602081019050610ae9565b50505050905090810190601f168015610b315780820380516001836020036101000a031916815260200191505b50858103845288818151815260200191508051906020019080838360005b83811015610b6a578082015181840152602081019050610b4f565b50505050905090810190601f168015610b975780820380516001836020036101000a031916815260200191505b50858103835287818151815260200191508051906020019080838360005b83811015610bd0578082015181840152602081019050610bb5565b50505050905090810190601f168015610bfd5780820380516001836020036101000a031916815260200191505b50858103825286818151815260200191508051906020019080838360005b83811015610c36578082015181840152602081019050610c1b565b50505050905090810190601f168015610c635780820380516001836020036101000a031916815260200191505b509850505050505050505060405180910390a1611015565b600a821480610c8a5750600081145b156110145760018054600181600116156101000203166002900480601f016020809104026020016040519081016040528092919081815260200182805460018160011615610100020316600290048015610d255780601f10610cfa57610100808354040283529160200191610d25565b820191906000526020600020905b815481529060010190602001808311610d0857829003601f168201915b50505050509450608060405190810160405280878152602001868152602001858152602001848152506002876040518082805190602001908083835b602083101515610d865780518252602082019150602081019050602083039250610d61565b6001836020036101000a03801982511681845116808217855250505050505090500191505090815260200160405180910390206000820151816000019080519060200190610dd5929190611027565b506020820151816001019080519060200190610df2929190611027565b506040820151816002019080519060200190610e0f929190611027565b506060820151816003019080519060200190610e2c929190611027565b509050507fbb1051dba231175657f885049f7d6e2b2bebb5e488fcf3bf519e5333f2b0e7aa868686866040518080602001806020018060200180602001858103855289818151815260200191508051906020019080838360005b83811015610ea1578082015181840152602081019050610e86565b50505050905090810190601f168015610ece5780820380516001836020036101000a031916815260200191505b50858103845288818151815260200191508051906020019080838360005b83811015610f07578082015181840152602081019050610eec565b50505050905090810190601f168015610f345780820380516001836020036101000a031916815260200191505b50858103835287818151815260200191508051906020019080838360005b83811015610f6d578082015181840152602081019050610f52565b50505050905090810190601f168015610f9a5780820380516001836020036101000a031916815260200191505b50858103825286818151815260200191508051906020019080838360005b83811015610fd3578082015181840152602081019050610fb8565b50505050905090810190601f1680156110005780820380516001836020036101000a031916815260200191505b509850505050505050505060405180910390a15b5b505050505050565b600a81565b600281565b828054600181600116156101000203166002900490600052602060002090601f016020900481019282601f1061106857805160ff1916838001178555611096565b82800160010185558215611096579182015b8281111561109557825182559160200191906001019061107a565b5b5090506110a391906110a7565b5090565b6110c991905b808211156110c55760008160009055506001016110ad565b5090565b9056fea165627a7a723058208aa2f1ce377f2c79e2fa6009d9c74c1d75e0e10e086a15c2261172805d1fbff10029",
  "source": "pragma solidity >=0.4.19 <0.6.0;\n\ncontract SGB {\n\t\n\tstruct Bins {\n\t\tstring ID;\n\t\tstring status;\n\t\tstring loc;\n\t\tstring seg;\n\t}\n\n\tstring binStatusFull = \"FULL\";\n\tstring binStatusEmpty = \"EMPTY\";\n\n\tmapping ( string => Bins)   bins;\n\tmapping ( string => string)  binDistance;\n\tmapping ( string => string)  wasteHeight;\n\n\tuint256 constant public binHeight = 10;\n\tuint256 constant public binThresholdDistance = 2;\n\n\tevent SGBUpdate (\n    \tstring ID,\n\t\tstring status,\n\t\tstring loc,\n\t\tstring seg\n    );\n\t\n\tconstructor() public {}\n\n\n\tfunction setSGBStatus(string memory _binID, string memory _binStatus, string memory _binLoc, string memory _binSeg, uint256 _binDistance, uint256 _binWasteHeight) public {\n\t\tif (_binDistance <= binThresholdDistance) {\t\t\t\n\t\t\t_binStatus = binStatusFull;\n\t\t\tbins[_binID] = Bins(_binID, _binStatus, _binLoc, _binSeg);\n\t\t\temit SGBUpdate(_binID, _binStatus, _binLoc, _binSeg);\n\n\t\t}\n\t\telse if (_binDistance == binHeight || _binWasteHeight == 0) {\n\t\t\t_binStatus = binStatusEmpty;\n\t\t\tbins[_binID] = Bins(_binID, _binStatus, _binLoc, _binSeg);\n\t\t\temit SGBUpdate(_binID, _binStatus, _binLoc, _binSeg);\n\n\t\t}\n\t}\n\n\tfunction getSGBStatus(string memory ID) public view returns(string memory, string memory, string memory, string memory) {\n\t\tBins storage bin = bins[ID];\n\t\treturn (bin.ID, bin.status, bin.loc, bin.seg);\n\t}\n\n}",
  "sourcePath": "/root/SGB/contracts/SGB.sol",
  "compiler": {
    "name": "solc",
    "version": "0.5.0+commit.1d4f565a.Emscripten.clang"
  },
  "schemaVersion": "3.0.11",
  "updatedAt": "2019-08-07T11:04:12.103Z",
  "devdoc": {
    "methods": {}
  },
  "userdoc": {
    "methods": {}
  }
}